:100000000C947A020C94C1020C94C1020C94C2218B
:100010000C94C1020C94C1020C94C1020C94C10254
:100020000C94C1020C94C1020C94E3190C949F1916
:100030000C94371B0C94C1020C94C1020C94C102A5
:100040000C94C1020C94C1020C94C1020C94C10224
:100050000C94C1020C94131B0C94C1020C94C102A9
:100060000C94C1020C94C1020C94C1020C94C10204
:100070000C94C1020C94C1020C94C1020C94C102F4
:100080000C94C1020C94C1020C94C1020C94C102E4
:100090000C94C1020C94C1020C94C1020C94C102D4
:1000A0000C94C1020C94C1020C94C1020001010124
:1000B0000101010101010202020202020202020325
:1000C00003030303030303040404040404040505F5
:1000D00005050506060606060707070707080808B8
:1000E00008090909090A0A0A0B0B0B0C0C0C0D0D67
:1000F0000D0E0E0E0F0F0F101011111112121313FF
:100100001414151516161717181819191A1A1B1B77
:100110001C1D1D1E1E1F20202122222324242526D3
:1001200026272829292A2B2C2D2D2E2F303132320B
:10013000333435363738393A3B3C3D3E3F40414217
:10014000434445464748494A4C4D4E4F50515354FD
:10015000555658595A5B5D5E5F61626465666869B1
:100160006B6C6D6F7072737577787A7B7D7E808231
:10017000838587888A8C8E8F91939596989A9C9E7A
:10018000A0A2A3A5A7A9ABADAFB1B3B5B7BABCBE8A
:10019000C0C2C4C6C9CBCDCFD1D4D6D8DBDDDFE257
:1001A000E4E7E9EBEEF0F3F5F8FAFDFF2B001400BD
:1001B0001A000800150017002900040016000700A7
:1001C00009000A0065001D001B000600190005005B
:1001D000000000000000E1002C41E2005F5D130020
:1001E00012000C0018001C00340033000F000E0039
:1001F0000D000B00310038003700360010001100F0
:10020000000000000000E0002842E3003A003D004A
:1002100040004300460049003B003E0041004400CE
:100220004A004B003C003F00420045004D004E009C
:100230000000000000000100010001005400560011
:10024000610060005F005300550057005E005D00D4
:100250005C006300605D58005B005A00590062005A
:100260000000000000000100135001001E001F00EC
:100270002000210022003500230024002500260054
:1002800027002D007B007C007D002F0030002E0019
:100290000000000000000100135001003900AD0013
:1002A000AB00A900AA00AC00BD00AE004F00520098
:1002B00051005000BE00A80079007A00625D615DC7
:1002C00000000000000001000100010029002B00D7
:1002D00014001A00080015000D00E10004001600CB
:1002E000070009001000E0001D001B0006001900B7
:1002F0000000000000000451E2002C004B0022002E
:10030000210020001F001E004E00270026002500AF
:1003100024002300310038003300370036002D0060
:10032000000000000000E500E600280001000100D8
:100330000F0001001700120013000100010001006E
:1003400001000A000C000100050011000B000E0066
:100350000000000000000100010001003F003E001D
:100360003D003C003B003A004D004A004F00520067
:10037000510050004500440043004200410040004D
:1003800000000000000010500100010005010902FA
:10039000A10185020901A10005091901290815001B
:1003A0002501950875018102050109300931158182
:1003B000257F95027508810609381581257F9501ED
:1003C00075088106050C0A38021581257F9501758F
:1003D000088106C0C005010980A101850319012A11
:1003E000B700150126B700950175108100C0050CF6
:1003F0000901A101850419012AA002150126A00204
:10040000950175108100C005010906A1018505054A
:100410000719E029E71500250195087501810205F6
:1004200007190029EF1500250195F07501810205D6
:10043000081901290595057501910295017503912A
:1004400001C005010906A101050719E029E715000A
:10045000250195087501810295017508810105073F
:10046000190029FF150026FF009506750881000573
:1004700008190129059505750191029501750391EA
:1004800001C009023B00020100A0FA0904000001BA
:10049000030101000921110100012240000705812B
:1004A0000308000A090401000103000000092111EA
:1004B00001000122B6000705820320000A12011084
:1004C0000100000008534601000100010200010C78
:1004D0000343006F0072006E0065000000100366A9
:1004E000006F006F007300740061006E0000000474
:1004F0000309040011241FBECFEFDAE0DEBFCDBF39
:1005000004B603FE27C08091490490914A04A0914B
:100510004B04B0914C048730904BA740B04BD1F4C2
:100520001092490410924A0410924B0410924C0409
:1005300014BE84B7877F84BF0FB6F894A8958091C6
:100540006000886180936000109260000FBEE0E060
:10055000F8E3099512E0A0E0B1E0E2EAF6E402C0B7
:1005600005900D92A633B107D9F724E0A6E3B2E0D7
:1005700001C01D92A934B207E1F70E946E1B0C94D2
:100580002B230C940000E8EDF0E080818E7F8083C7
:100590001092E2001092DA001092E100A0EEB0E0BA
:1005A0008C9181608C9380818F77808319BCA7EDBB
:1005B000B0E08C918E7F8C9380818F7E80831092AF
:1005C000F90308952091E4003091E50095E6A90132
:1005D0002091EC00822F817020FF06C08091E800FE
:1005E00080FF06C080E008952091E80022FD1AC037
:1005F00080911E04882389F0853089F08091EB007A
:1006000085FD0FC02091E4003091E50042175307AB
:10061000F9F29150E1F684E0089582E0089583E0D4
:10062000089581E00895EF92FF920F931F93CF9367
:100630007C018B010E94E202C82F811117C08091BA
:10064000E80085FD0BC08091E8008E778093E8007C
:100650000E94E202882399F3C82F08C0F701819114
:100660007F018093F1000150110949F78C2FCF9140
:100670001F910F91FF90EF9008958091200487FFC4
:1006800013C08091E80082FF06C08091E8008B775C
:100690008093E80004C080911E048111F2CF089578
:1006A00080911E048823D9F38091E80080FFF8CF61
:1006B0008091E8008E77ECCF982F9093E900242F5B
:1006C000762F50E0891731F07091EC002091ED0009
:1006D0005091F00021FD07C09F5F973071F7809324
:1006E000E90081E008953091EB003E7F3093EB000C
:1006F0003091ED003D7F3093ED003091EB003160A3
:100700003093EB007093EC002093ED005093F000D9
:100710002091EE0027FDE0CF80E00895CF92DF9298
:10072000EF92FF920F931F93CF93DF93C8EDD0E02A
:1007300088818F7E8883E7EDF0E08081816080830F
:1007400084E082BF81E08093F90388818E7F888373
:1007500002EE10E0F80110821092DA0081EEC82E4D
:10076000D12CF601108288818F77888388818068F8
:10077000888388818F7D888319BC10921E04109213
:100780001F0410921D0410921C0490EEE92EF12C0F
:10079000F70180818B7F808388818160888342E03C
:1007A00060E080E00E945C03F60180818E7F8083A0
:1007B000F801808181608083808188608083F70177
:1007C00080818E7F8083888180618883DF91CF9153
:1007D0001F910F91FF90EF90DF90CF900895FC0153
:1007E000809126049091270486179707A0F0611541
:1007F000710529F49091E8009E779093E80090E0CD
:100800006115710551F4911108C08091E80082FFD3
:1008100034C080E00895BC01F2CF80911E0488238B
:10082000C1F18530C1F18091E80083FD30C0809135
:10083000E80082FDEACF8091E80080FFE1CF80915F
:10084000F3002091F200382F6115710519F028305E
:10085000310558F091E02830310509F090E0209101
:10086000E8002E772093E800CBCF81918093F100B0
:10087000615071092F5F3F4FE7CF80911E0488239D
:1008800041F0853041F08091E80083FFBECF81E0E8
:10089000089582E0089583E0089580E008958091AE
:1008A000FB03089587E797E790930108809300087A
:1008B00088E19AE00FB6F894A895809360000FBE87
:1008C00090936000FFCF9C014FB7F894809165032F
:1008D00090916603A0916703B09168034FBF821B9C
:1008E000930B08952FB7F894609165037091660398
:1008F00080916703909168032FBF08952FB7F894F4
:100900008091650390916603A0916703B09168039D
:100910002FBF0895209111012223C9F02091710366
:1009200027FF15C0E62FE695E695E695EE31D8F45B
:10093000E80FF92FF11D677021E030E001C0220FB0
:100940006A95EAF720958281282322830895FC0185
:10095000329608962191621303C0DF0111971C9211
:10096000E817F907B9F70895209111012223C1F082
:100970002091710327FF14C0E62FE695E695E695D2
:10098000EE31F8F4E80FF92FF11D677021E030E047
:1009900001C0220F6A95EAF78281822B8283089533
:1009A000FC0132962FEF30E04191641751F02F3F58
:1009B00019F4411101C0232F3F5F3630A9F72F3FB3
:1009C00009F40895820F911D27FD9A95FC01628319
:1009D00008958091600381111092600308958091C1
:1009E0002B0490915F03892B90915E03892B809358
:1009F0003802909160039923A1F0892B80933802EB
:100A000080911101882341F18091710387FF24C0F7
:100A10008EE1EAE3F2E090E0815000F591110E944E
:100A2000E904E0917D03F0917E033097E1F080913D
:100A30001101882359F08091710387FF07C08091CD
:100A400038028093390285E0809338020280F38176
:100A5000E02D88E392E0099486E0DBCF2191222308
:100A6000D9F29F5FD9CF0895E92FEE0FE90FEE0F6E
:100A70008E0F982F977086958695869525E0829F94
:100A8000F0011124E15CFC4F50E040E080E0219156
:100A900030E0092E02C0369527950A94E2F72170BE
:100AA0003327042E01C0220F0A94EAF7822B4F5FEE
:100AB0005F4F4530510559F70895E92FEE0FE90FC3
:100AC000EE0F8E0F982F977041E001C0440F9A955A
:100AD000EAF786958695869595E0899FF001112421
:100AE000E15CFC4F30E020E070E05191DF011197B4
:100AF000CB01022E02C0969587950A94E2F7817089
:100B000081958527842385278C932F5F3F4F253040
:100B1000310559F7089520913E0390910D0356E059
:100B2000291302C080E0089530E0529FF001539FE6
:100B3000F00D1124E25FFC4F7181761306C07081C5
:100B4000781303C07281741304C02F5F3F4F277066
:100B5000E7CF81E0089580913E0390910D039813B3
:100B600001C008958F5F8770FACF882341F0809588
:100B700090912B04892380932B040C94EF04089507
:100B8000882339F090912B04982B90932B040C948C
:100B9000EF040895209103033091040328173907C7
:100BA00071F09093040380930303E0917D03F0912F
:100BB0007E03309721F00084F185E02D099408959B
:100BC00020910103309102032817390771F09093A7
:100BD000020380930103E0917D03F0917E0330973F
:100BE00021F00680F781E02D09940895E0917D03BE
:100BF000F0917E03309721F00190F081E02D09946F
:100C000080E00895FC01EE0FFF1FE80FF91FE15A85
:100C1000FD4F61834083228308954095282F429F92
:100C2000412D1124842F0895AF92BF92CF92DF926D
:100C3000FF920F931F93CF93DF93362F472FE82F09
:100C4000F0E0E455FF4F71110FC0E4918E2F2E2F6D
:100C50006E2F722FDF91CF911F910F91FF90DF9038
:100C6000CF90BF90AF900895C72FD0E02491F22E7F
:100C7000022F10E056E0659FC0011124EFEFF0E075
:100C8000BF010E946122832F90E0880F991F35E5F4
:100C9000369FD001379FB00D11248A1B9B0B982FD4
:100CA000990F980F6F01CC1ADD0AC09ED001C19E2A
:100CB000B00DD09EB00D11248B2F499FA00111249F
:100CC000452F55276F01C41AD50AC09EA001C19EA9
:100CD000500DD09E500D11245F01A91AB108AC9E91
:100CE0006001AD9ED00CBC9ED00C1124CD2CDD2417
:100CF000EC19FD09E09FE001E19FD00DF09FD00DC0
:100D00001124ED2F62307105A1F050F461157105C9
:100D100009F49ECF6130710581F0EB2F852F98CFBC
:100D20006430710569F080F06630710509F490CF88
:100D3000F4CFE22F2B2F8D2F8BCFE22F252F88CFB3
:100D4000EB2F822F2D2F84CF2B2F8F2DE52F80CFB0
:100D50000E947E049C019091EB038091EC03982B00
:100D600021F03093E8032093E7039091ED03809105
:100D7000EE03982B21F03093E5032093E403E091F8
:100D80007D03F0917E03309749F082E08093E90380
:100D90000480F581E02D89EE93E00994089590E0B8
:100DA00080E00E94E00590E080E00E94CA05109279
:100DB0005F0310925E030E94EF0486E0E9EEF3E029
:100DC000DF011D928A95E9F71092E6031092E30382
:100DD000109206030C94A80660936D0370936E0343
:100DE00080936F03909370030C94CF060F931F931F
:100DF00041E050E060E070E004C0440F551F661F02
:100E0000771F8A95D2F7CB01BA01609570958095CE
:100E1000909500916D0310916E0320916F033091B6
:100E2000700360237123822393231F910F910C94ED
:100E3000EC0690915D038095892380935D03282FB4
:100E4000277039F4282F082E000C330B9217130645
:100E500021F49091720392FF07C085958595859541
:100E60000E94F60610925D0308950F931F9341E0D0
:100E700050E060E070E004C0440F551F661F771F0C
:100E80008A95D2F780916D0390916E03A0916F03C4
:100E9000B09170038A019B01082B192B2A2B3B2B45
:100EA000C901B8011F910F910C94EC066093610386
:100EB0007093620380936303909364030C94CF0652
:100EC0004091EB038D3E59F48091EC0387FF0DC0F8
:100ED0001092EC0341110BC01092E60308C08E3E45
:100EE00081F48091EC0318169CF3442381F08091E7
:100EF000ED039091EE03892B09F05AC01092E303A1
:100F000008958F3E49F447FFF0CF1092EB03809194
:100F1000EC038111ECCFE0CF803F19F41416ACF351
:100F2000E4CF9091ED03893F29F41916F4F610925D
:100F3000ED03DBCF8A3F19F497FFD7CFF8CF90911D
:100F4000EE038B3F29F497FFD0CF1092EE03CDCF65
:100F50008C3F19F41916CCF3C8CF9FE0980F983046
:100F600090F4815F990B21E030E0B90102C0660F77
:100F7000771F8A95E2F7CB0180959091EA03892348
:100F80008093EA03B2CF8D3F31F4809106038E7FC8
:100F900080930603AACF8E3F21F4809106038D7FB4
:100FA000F7CF8F3F09F0A1CF809106038B7FF0CF61
:100FB00008958823B1F19CEF980F913A38F4682F87
:100FC00088E392E00E948A040C94EF0490E2980F68
:100FD000983088F4877021E030E0A90102C0440F06
:100FE000551F8A95E2F7CA01809590912B048923B9
:100FF00080932B04E9CF9BE5980F933020F490E089
:1010000080E00C94E00598E5980F973120F490E08B
:1010100080E00C94CA058D3E20F00E9460070C947D
:10102000A80608958091060380FD16C081FD16C0B4
:1010300082FD16C08091E3038823A1F0883280F4FA
:1010400028E0829FC001112468E270E00E947522AE
:10105000862F672B39F0089582E0089584E0089583
:1010600088E0089581E008958091060380FD14C012
:1010700081FD14C082FD16C08091E603882381F0B3
:10108000843180F422E3829FC001112464E170E086
:101090000E947522862F08958CE0089589E10895B5
:1010A00085E0089582E308958D3E31F40E9434086E
:1010B00081958093EC0308958E3E19F40E943408C4
:1010C000F8CF8F3E31F40E94340881958093EB0372
:1010D0000895803F19F40E943408F8CF893F29F41D
:1010E0000E9412088093ED0308958A3F21F40E9424
:1010F00012088195F7CF8B3F31F40E941208819539
:101100008093EE0308958C3F19F40E941208F8CFE3
:101110009FE0980F983070F4815F990B21E030E0E8
:1011200001C0220F8A95EAF78091EA03822B80930F
:10113000EA0308958D3F31F4809106038160809326
:10114000060308958E3F21F4809106038260F7CF55
:101150008F3FB9F7809106038460F1CFCF93C82FFA
:10116000882309F46FC08CEF8C0F813AC0F5809111
:101170001101882311F18091710387FF1EC0EC2FAC
:10118000E695E695E695F0E0E85CFD4F828190E01B
:101190004C2F477021E030E002C0220F331F4A95E8
:1011A000E2F782239323892B91F06C2F88E392E05E
:1011B0000E948A040E94EF040AC0EAE3F2E080E49D
:1011C00092E02191C21789F38E179F07D1F76C2FF8
:1011D00088E392E00E94B404CF910C94EF0480E283
:1011E0008C0F883068F4C77021E030E001C0220F16
:1011F000CA95EAF780912B04822B80932B04ECCFC5
:10120000EBE5EC0FE33040F4F0E0EC5DFE4F808165
:1012100090E0CF910C94E005E8E5EC0FE73150F455
:10122000F0E0EE0FFF1FE95DFE4F80819181CF91CD
:101230000C94CA05CD3E30F08C2F0E945408CF91FB
:101240000C94A806CF910895FC018281882371F047
:1012500080912B04682381E009F480E080932C04C2
:10126000611101C04AE2842F0C94AE0880912C04D5
:10127000811101C04AE2842F0C94D907F894E82F19
:10128000E295EF70F0E031A1282F2F7081E090E01F
:1012900001C0880F2A95EAF7982F9095932391A380
:1012A00092A1892B82A3789408959091710392FF63
:1012B00006C0282F28712830F9F4877F846093FFB7
:1012C00006C0282F28712831F1F4877E846120918F
:1012D000720320FF06C0382F38713830D9F4877F69
:1012E000816021FF06C0282F28712831D1F4877E24
:1012F000816194FD877E0895282F24712430F9F6AA
:101300008B7F8860DCCF282F2471243101F78B7EFE
:101310008861DDCF382F3171313019F78E7F8860C9
:10132000E0CF282F2171213121F78E7E8861E1CF16
:10133000CF93DF93972F70E026E0929F600D711D91
:101340001124FB0130E3839FE00DF11D1124EE0F0A
:10135000FF1FE455FE4FC591D491CE01C238D1058F
:10136000B9F1E8F5C133D10509F499C050F5C93296
:10137000D10509F48DC0CA32D10509F497C0C11551
:1013800021E5D20708F0BFC0C11530E5D30708F04A
:1013900016C1C83ED10508F09DC0C13ED10568F513
:1013A000C83AD10508F089C0C53AD10508F0FFC098
:1013B000C130D10511F1209709F443C02497E8F416
:1013C00040C0C533D10509F45CC0C933D105B9F6B5
:1013D00020917103237089F080EE90E00EC0C33E2F
:1013E000D10591F168F4C03ED105F9F0C23ED105B6
:1013F00031F62091710322FD20C0DF91CF91089535
:10140000C63ED10561F1C73ED10581F1C43ED1058B
:1014100009F0B5CF2091720321FFEFCF80917103C6
:1014200084FD0FC087EE90E0E8CF2091710320FD8E
:1014300012C13091720330FFE0CF83EE90E024FFC1
:10144000DCCF90E080E0D9CF2091710322FD06C16E
:101450003091720330FDC0CF24FFCFCFF2CF209167
:10146000710323FFCACF24FDECCFDCCF20917103A1
:1014700023FDF7C03091720331FFEECF84EE90E090
:10148000BCCF2091710325FFB8CF89E290E0B5CFA2
:101490002091710325FFB1CF85E390E0AECF20917D
:1014A000710326FFAACF8AE290E0A7CF20917103B3
:1014B00026FFA3CF81E390E0A0CFCF3BD10508F674
:1014C000C85AD0E0CC0FDD1FC95DDE4F88819981FD
:1014D000946493CFC11520E2D20760F4C11531E0C6
:1014E000D30708F08ACFCE019065CD3ED10508F034
:1014F00084CFA7CFC11580E4D80708F4A2CFCE01CE
:101500009F70906A7ACFC11595E5D90710F5C1157E
:1015100024E5D20708F088C0C11533E5D30708F0E9
:101520006FC0C11582E5D80708F465C09E0123701D
:10153000332781E090E002C0880F991F2A95E2F7D7
:10154000C695C69520E2C29FE00111248C2B9D2BED
:1015500050C0C11599E5D907A0F4C11528E5D207F7
:1015600008F067C0C11536E5D30708F06ACF8C2FA5
:101570000E94550990E0982F882788279F719062D4
:101580003CCFC1158AE5D80708F458C0CE01905663
:101590008115904208F055CF8D2F8F710E9455090B
:1015A00090E0982F882788279F718C2BE8CFC55A09
:1015B000D0E0CC5DDE4F888190E090641ECF9E012C
:1015C000E4E036952795EA95E1F723708C2F869510
:1015D0008695837030E2839FC0011124922BC370E3
:1015E00021E030E002C0220F331FCA95E2F7822BC0
:1015F000932B9C6802CF9C2F8827816F906AFDCE29
:101600009E012370332781E090E002C0880F991F6C
:101610002A95E2F7C695C69530E2C39FE0011124F2
:101620008C2B9D2B9A68E9CE9C2F8827846F906A1B
:10163000E4CE9C2F8827806F906ADFCE8C2F8F702E
:101640000E94550934E0D695C7953A95E1F7CF70D9
:101650009C2F9069D2CE89E390E0CFCE82EE90E0CD
:10166000CCCE86EE90E0C9CEBF92CF92DF92EF92C1
:10167000FF920F931F93CF93DF938C01C0906D0364
:10168000D0906E03E0906F03F0907003809161033F
:1016900090916203A0916303B0916403C82AD92A90
:1016A000EA2AFB2ACFE1D0E0BC2ED701C6010C2EDE
:1016B00004C0B695A795979587950A94D2F780FDB3
:1016C0000EC0219788F7B12C8B2DDF91CF911F9100
:1016D0000F91FF90EF90DF90CF90BF900895B801E9
:1016E0008C2F0E949809019761F3EECFCF93DF937F
:1016F000EC010E94340BBE01DF91CF910C9498094C
:101700000E94760B292F2F7092959F7092509E30D9
:1017100078F4E92FF0E0E35DFC4D0C94A822803FC3
:1017200019F020F4883E20F481E00895843FE1F32D
:1017300080E00895883EC0F3813FD1F7F5CF822F36
:1017400086958695869508950F931F93CF93DF9383
:10175000C62FD42F022FFC0182818823A1F0609331
:101760002A040E947E049093290480932804C77061
:1017700081E001C0880FCA95EAF7DF91CF911F91F0
:101780000F910C94C00580912A04681338C0809191
:101790002804909129040E9463048639910578F504
:1017A00010E21D0FCD17B9F080E28C0F883040F4A5
:1017B000C77081E001C0880FCA95EAF70E94B5059D
:1017C000183048F481E09D2F977001C0880F9A95DA
:1017D000EAF70E94C005802F0E94AE08802F0E9469
:1017E000D907183098F4D77081E001C0880FDA95D6
:1017F000EAF7DF91CF911F910F910C94B505C77057
:1018000081E001C0880FCA95EAF7F3CFDF91CF914D
:101810001F910F910895CF93DF9300D00F92CDB712
:10182000DEB790911E04943019F589837B836A8317
:1018300082E08093E9008FEF9091E800815095FD60
:1018400006C095ED9A95F1F700008111F5CF8091D2
:10185000E80085FF0DC050E040E063E070E0CE019D
:1018600001960E9413038091E8008E778093E80030
:101870000F900F900F90DF91CF910895BC0184E0FD
:101880000C940B0CBC0183E00C940B0C9C0182E0CB
:101890008093E9009FEF8091E800915085FD06C09C
:1018A00085ED8A95F1F700009111F5CF8091E80060
:1018B00085FF0CC050E040E066E070E0C9010E9486
:1018C00013038091E8008E778093E8000895CF930A
:1018D000DF93EC01809111018823B1F180917103B4
:1018E00087FF32C060E282E08093E9008FEF909141
:1018F000E800815095FD06C095ED9A95F1F700003E
:101900008111F5CF8091E80085FF1BC08091110106
:1019100070E050E040E0811104C050E040E068E039
:1019200070E0CE010E9413038091E8008E778093CF
:10193000E80080E2FE01ACEFB3E001900D928A95E1
:10194000E1F7DF91CF91089568E081E0CDCF539A20
:101950003BB1377F2BB128604FB7F8948FE592E009
:10196000FC015191CF0168E02BB9000000C057FF86
:101970003BB9550F000000C000C000C03BB900C01B
:101980006A9591F7F3E081309F0751F74FBF8FE5DC
:1019900094E00197F1F700C00000089580915E0285
:1019A000811110C08091D80080618093D8008AE1B5
:1019B0008A95F1F700C08091D90080FF0AC081E0CC
:1019C00080935E0281E090915E02913009F080E0A8
:1019D000089582E080935E020E94C30210921E046A
:1019E000F1CFFF920F931F93CF93DF93EC01162F4C
:1019F000042FF22E0E94CE0C81110FC0CB31D105E5
:101A000064F02F2D402F612FCE014B97DF91CF91A6
:101A10001F910F91FF900C9402060E94CE0C882318
:101A200041F0CB31D1052CF42F2D402F612FCE0169
:101A3000EDCFDF91CF911F910F91FF900895FF920D
:101A40000F931F93CF93DF93182F062FF42ED0E020
:101A5000C0E02F2D402F612FCE010E94F10C219666
:101A6000C633D105B1F7DF91CF911F910F91FF9050
:101A700008952091590230E090914304937059F0F9
:101A8000F901EF5DFE4F808181110EC0946090934B
:101A9000430410920601C901019663E070E00E94C0
:101AA0006122809359020895843010F09C60EFCF3A
:101AB000880F880F982BEBCF8091580290914304A8
:101AC000937089F0E82FF0E0E35EFE4F90819093F1
:101AD000440491E0833008F090E0919590934504A0
:101AE0009CE8909346048F5F83708093580208951A
:101AF000CF9384E090E00E94E022C82F82E290E041
:101B00000E94E022982F8C2FCF9108956AEE7EEFED
:101B100090E080E00E941C2360E082E090E00E9460
:101B2000FE2260E083E090E00E94FE2210926103BA
:101B300010926203109263031092640360E084E0E9
:101B400090E00E94FE2260E082E290E00E94FE228D
:101B500060E085E090E00E94FE2260E086E090E098
:101B60000E94FE226FEF87E090E00E94FE2240E09C
:101B700050E0BA0188E090E00E94102360E08DE020
:101B800090E00E94FE2240E050E0BA0188E190E03F
:101B90000E94102360E087E190E00E94FE2240E076
:101BA00050E0BA018CE190E00E94102370E060E008
:101BB00080E290E00E941C2340E050E0BA0188E1FE
:101BC00090E00E94102340E050E0BA018FE090E0E6
:101BD0000E94102340E050E0BA0183E190E00C94B1
:101BE0001023CF93C0917203C2FB992790F99817E5
:101BF00081F080FBC2F9C09372036091710384E0AD
:101C000090E00E94FE226C2F82E290E0CF910C9433
:101C1000FE22CF91089510922B0480911101EAE3E6
:101C2000F2E0882359F08091710387FF07C08EE1AD
:101C3000DF011D928A95E9F70C94CF0686E0F8CF74
:101C40001F93CF93DF93CDB7DEB7AA970FB6F89463
:101C5000DEBF0FBECDBF80E294E02091F100FC0119
:101C60002193CF01F4E088329F07B9F780912104D6
:101C7000833009F46FC0B8F4813009F446C0823073
:101C800009F4B0C08091E80083FF7BC280912004FA
:101C9000909121049A3008F074C2E92FF0E0E55CDD
:101CA000FC4D0C94A8228A3009F48BC08B3009F4C7
:101CB0006EC0893039F780912004813219F7809104
:101CC0002404909125040297E8F68091E800877F2C
:101CD0008093E8008091E80082FF37C09091F30084
:101CE0008091F200029729F48091F1008B7F81307E
:101CF00021F48091F1008093FB038091E8008B77C1
:101D00008093E8000E943D03BDCF80912004813A7A
:101D100009F0B8CF8091E800877F8093E800809138
:101D2000240490912504892B61F460E28CEF93E008
:101D300070E00E94EF038091E8008B778093E800C9
:101D4000A1CF60E090E080E0F3CF80911E0481118C
:101D5000C1CF98CF80912004813A09F093CF809130
:101D6000240490912504892B09F08CCF8091E80000
:101D7000877F8093E8008091E80080FFFCCF80910E
:101D800011018093F1008091E8008E77B9CF8091A6
:101D90002004813209F076CF8091240490912504AB
:101DA000892B09F06FCF8091E800877F8093E8004E
:101DB0000E943D0380912204809311010E940B0E2A
:101DC00061CF80912004813209F05CCF8091E800DE
:101DD000877F8093E8000E943D03809123048093D5
:101DE000FA0350CF80912004813A09F04BCF8091C3
:101DF000E800877F8093E8008091E80080FFFCCFB7
:101E00008091FA03BECF803899F0823809F0B9C1C9
:101E1000809124048F70873008F0B3C18093E9006B
:101E20008091EB0085FB882780F91092E90006C0BD
:101E300080911C0490911D04911182609091E800A2
:101E4000977F9093E8008093F1001092F1008091C9
:101E5000E8008E7792C1882309F480C1823009F0AE
:101E600090C180912204811183C1809124048F70DC
:101E70002FEF280F263008F084C18093E9002091CD
:101E8000EB0020FF75C1933031F48091EB0080624C
:101E90008093EB006DC19091EB0090619093EB000B
:101EA00021E030E001C0220F8A95EAF72093EA0092
:101EB0001092EA008091EB008860EACF811161C145
:101EC000109122041F778091E3008078812B80930A
:101ED000E3008091E800877F8093E8000E943D0343
:101EE0008091E80080FFFCCF8091E30080688093C0
:101EF000E30082E0111183E080931E0442C1805808
:101F0000823008F03EC180912204909123048C3DE0
:101F100023E09207A1F583E08A838AE289834FB7A1
:101F2000F894DE01139620E03EE051E2E32FF0E06A
:101F300050935700E49120FF03C0E295EF703F5F9C
:101F4000EF708E2F90E0EA30C0F0C7968D939D938E
:101F50002F5F243159F74FBF8091E800877F80932E
:101F6000E8006AE270E0CE0101960E94EF038091E2
:101F7000E8008B778093E80004C1C096E7CF4091DA
:101F8000240450912504292F33272330310509F4E7
:101F900044C078F52130310509F46FC08BE390E03F
:101FA000E2E8F4E02230310509F0EBC02091E800CE
:101FB000277F2093E8002091260430912704821780
:101FC000930708F49C0140E02115310509F064C035
:101FD000411162C08091E80082FDC9CF80911E044A
:101FE000882329F2853019F28091E80083FFF2CF2F
:101FF000BECF21323105A9F12232310509F0C1C02D
:102000004115510509F443C04130510509F0B9C0EB
:1020100086EB90E0ECE8F3E0C9CF99278130910599
:10202000C1F0009759F0029709F0ABC0EFECF4E073
:10203000E4918E2F90E0EFECF4E007C0EFEEF4E0D7
:10204000E4918E2F90E0EFEEF4E0009709F499C050
:10205000ADCFEDEDF4E0E4918E2F90E0EDEDF4E006
:10206000F4CF4115510571F04130510509F089C097
:1020700089E090E0EDEAF4E099CF82E190E0EDEBC9
:10208000F4E094CF89E090E0E4E9F4E08FCF80E4DD
:1020900090E0E2E4F4E08ACF80911E04882309F402
:1020A00066CF853009F463CF8091E80083FD5FCF70
:1020B0008091E80082FD8ECF8091E80080FF84CF80
:1020C0009091F3008091F2002115310519F08830CC
:1020D000910550F041E0089709F040E08091E80058
:1020E0008E778093E80070CF44914093F100319651
:1020F000215031090196E8CF803809F042C0809123
:10210000E800877F8093E80080911F048093F100AE
:102110009ECE811136C010912204123090F580912C
:10212000E800877F8093E80010931F040E943D031E
:10213000112311F084E005C08091E30087FDFACF00
:1021400081E080931E0442E061EC81E00E945C0328
:1021500042E261EC82E00E945C0313C080912204A1
:10216000813079F481E0933009F080E080931D04A0
:102170001092E9008091E800877F8093E8000E9438
:102180003D038091E80083FF0AC08091E800877FCB
:102190008093E8008091EB0080628093EB00AA9628
:1021A0000FB6F894DEBF0FBECDBFDF91CF911F9168
:1021B00008954F925F926F927F928F929F92AF920B
:1021C000BF92CF92DF92EF92FF920F931F93CF9324
:1021D000DF9300D000D00F92CDB7DEB77C01FC01B9
:1021E00083819481892B39F01081D180812F8D21B9
:1021F0008F3F09F084C40F900F900F900F900F90B5
:10220000DF91CF911F910F91FF90EF90DF90CF90D2
:10221000BF90AF909F908F907F906F905F904F9006
:1022200008950E94340B082F682F89819A810E949B
:102230005D05E12FF0E026E0D29EE00DF11D1124B6
:1022400030E3039FE00DF11D1124EE0FFF1FE45555
:10225000FE4F0591149100368DE5180709F45CC016
:1022600008F043C00F35EDE51E0709F44FC0043FE9
:10227000FCE51F0709F4B6C008F05BC0093D3CE56A
:10228000130709F4ABC00A3D8CE5180709F4BAC07E
:10229000083D9CE5190709F058C026E241EE61EEC1
:1022A000C7010E94A40B80915D03877009F4A3CF3E
:1022B000F7018281882309F49ECF82E00F900F906E
:1022C0000F900F900F90DF91CF911F910F91FF9082
:1022D000EF90DF90CF90BF90AF909F908F907F90C6
:1022E0006F905F904F900C9419070136FDE51F0722
:1022F000C9F002362DE5120709F0B9CFF701828146
:10230000882309F4B4CF0E945C0DB1CF4CE450E0B7
:1023100062E2C7010E94240949E250E061E1C7017D
:102320000E942409F7018281882341F30E94390D1C
:10233000E5CF063FECE51E0709F45CC008F456C083
:10234000073F2CE5120709F459C0F7018281882361
:1023500009F4E6C310922A040230FCE51F0708F4D2
:1023600032C106312CE5120730F0C8018B5F9C4565
:10237000099708F028C10E94780D9093720380930A
:10238000710300313CE5130709F4ECC008F07AC092
:1023900008309CE5190709F4DBC008F049C0043097
:1023A000FCE51F0709F4CCC080F502303CE51307BB
:1023B00009F4BCC003301C4509F4BEC06091710330
:1023C0001091720384E090E00E94FE22612F82E26D
:1023D00090E00E94FE220E940B0E65CF27E245EEA0
:1023E00065EE5ECF26E241EE60EE5ACF27E245EE83
:1023F00064EE56CF26E241EE62EE52CF27E245EE82
:1024000066EE4ECF28E241E0EBCF80917103806110
:1024100006309CE5190709F48CC08091710388602F
:1024200007301C4508F485C080917103806281C02B
:10243000809171038D7F0C30FCE51F0709F479C092
:1024400070F4809171038C600A303CE5130709F445
:1024500070C008F481C0809171038E7F6AC0809142
:102460007103877F0E309CE5190709F462C08091E3
:1024700071038B7F0F301C4508F45BC080917103A2
:102480008F7E57C00C3FFCE51F0709F45DC030F597
:1024900003313CE5130709F46DC078F401319CE584
:1024A000190709F463C002311C4509F087CF0E9467
:1024B0000B0E809171038F773CC00531FCE51F073F
:1024C00009F460C008F474C08091720381600B3F0E
:1024D0001C4509F073CF8093720370CF01158DE511
:1024E000180709F44BC088F4809172038D7F0E3F6A
:1024F000ECE51E0781F3809172038E7F0F3F1C4530
:1025000050F3809172038360E6CF02302DE512070D
:1025100009F457C008F442C060E003301D4509F0DB
:102520004DCF8EE090E00E94FE2248CF8091710353
:1025300081608093710342CF809171038260F9CFF3
:10254000809171038460F5CF809172038260C3CF64
:10255000809171038064EDCF0E940B0E8091710316
:102560008068E7CF809171038F7DE3CF8091710305
:102570008F7BDFCF80917103837FDBCF80917203EC
:102580008C7FA9CF8091710382FB992790F921E07C
:10259000922790FB82F990FB83F9CBCF8091720355
:1025A000982F909591708E7F892B90FB81F993CF16
:1025B0000E940B0E90917103892F97FB87F9805829
:1025C000B8CF61E0AECF06319CE5190709F0BBC278
:1025D00080912B048A7A91E009F490E090930503AE
:1025E00069E2811165E388E392E00E94B4040E94ED
:1025F000EF0459CE8091050369E2811165E388E318
:1026000092E00E948A04F3CF0E940B0EEFEFF4E3F6
:102610002CE0E150F0402040E1F700C000000E94B3
:10262000520481E0B0C280E0AEC2C8010E9434050D
:10263000D82EBAC2212F2F70A22E107F19F0A2948B
:1026400020EFA222DD20C9F0AA2069F080E2800FED
:10265000883010F081100BC080912B04A82AA09222
:102660002B040E94EF04802F0E94AE0818C08091B6
:102670005F03A82AA0925F03F4CF802F0E94D9079E
:10268000AA2069F0A094005E083010F0811045C0C7
:1026900080912B04A822A0922B040E94EF04EB2D22
:1026A000E850FF0B349710F40E94F605CC20A9F0F7
:1026B00080915D0380FD11C0F7011282859585959B
:1026C00085950E943507C7010E94D91080915D034E
:1026D0008595859585950E94F60685E0F701DE01D2
:1026E000119601900D928A95E1F789819A810E9455
:1026F00034059A81E981F0E026E0929FE00DF11D1A
:10270000112430E3839FE00DF11D1124EE0FFF1F14
:10271000E455FE4F859194916ECD80915F03A82280
:10272000A0925F03BACF312F3F70932E107F1032EB
:1027300019F0929490EF9922882071F081E0881628
:1027400081F1DD20D9F1AA2091F1F701858180FF87
:102750008ACF8F7085832BC0DD20B1F0909160030C
:10276000892D892BA11003C00E94C00598CFE1E0FC
:10277000AE12FACF2091720322FD91CF981709F47F
:102780008ECF809360038BCFA11006C00E94E90416
:10279000892D0E94B50583CFF1E0AF1609F47FCFF4
:1027A000F5CFDD2031F025E02A1508F478CF892D0A
:1027B000DBCF34E03A1508F472CFEACFAA2041F318
:1027C000F9E38F1295C12FEF37EE83E021503040AF
:1027D0008040E1F700C000008BC1812F869586956F
:1027E000837061F0813009F05ACFC8019370D11025
:1027F00002C090E080E00E94CA0551CFC8019370EA
:10280000D11002C090E080E00E94E00548CF802F08
:10281000DD2029F00E9454080E94A80640CF0E94A3
:102820006007FACF812F837009F066C0D11037CFCF
:10283000802F829586958770880F880F602F6F7024
:10284000462E512C712C612C082E04C0440C551CB2
:10285000661C771C0A94D2F740E050E0BA0104FFEE
:102860000FC04FE050E060E070E004C0440F551F1F
:10287000661F771F8A95D2F74095509560957095A1
:10288000812F869586958370823019F1D8F4009156
:1028900061031091620320916303309164038130DE
:1028A00069F04429552966297729CB01BA016023AB
:1028B0007123822393230E945607F1CE402A512A86
:1028C000622A732ACB01BA016429752986299729BE
:1028D000F2CF442955296629772900916103109187
:1028E00062032091630330916403CB01BA01602736
:1028F000712782279327DFCF8695DD2011F0812F66
:102900008170882309F4CBCE802F829586958770BD
:10291000880F880F602F6F70462E512C712C612C00
:10292000082E04C0440C551C661C771C0A94D2F770
:1029300040E050E0BA0104FF0FC04FE050E060E01B
:1029400070E004C0440F551F661F771F8A95D2F7A9
:102950004095509560957095812F869586958370EA
:10296000823019F1D8F400916D0310916E0320911B
:102970006F0330917003813069F04429552966292D
:102980007729CB01BA0160237123822393230E940C
:10299000EC0685CE402A512A622A732ACB01BA015D
:1029A0006429752986299729F2CF44295529662952
:1029B000772900916D0310916E0320916F03309180
:1029C0007003CB01BA016027712782279327DFCFDD
:1029D0001F70DD2029F0812F0E943507802FC4CE83
:1029E000802F0E94B505812F0E94F60658CE802FB9
:1029F00092EF891609F454C0981578F0E0EF8E161E
:102A000039F1F1EF8F1609F443C0DD2009F46BC0F2
:102A1000A11029CE812F8F7140C023EF821609F4B7
:102A200044C034EF8312F1CFDD2009F451C01F718F
:102A3000812F0E9435078091720382FD07C0E8E074
:102A40001E9FC0011124836080935D03812F25C0E8
:102A5000DD20C9F084E08A1508F421CE1F7161E001
:102A600070E080E090E004C0660F771F881F991F18
:102A70001A95D2F700916D0310916E0320916F03A8
:102A800030917003A0CF95E09A1508F408CEE6CFF8
:102A9000812F8F71DD2009F4A7CF0E943507FFCD6C
:102AA000812F8F71DD20C9F39FCF60E070E0CB01F3
:102AB000DD2009F46CCF1F7161E070E080E090E0F0
:102AC00004C0660F771F881F991F1A95D2F75FCF32
:102AD00081E00E941907F1E0FA1508F0E0CD82E0EC
:102AE0000E941907DCCDAA2039F0893309F46BCE96
:102AF000802F0E94D907D3CD812F8F7175CF85E0AC
:102B0000DE01119601900D928A95E1F7F70122817D
:102B100089819A81211185CB0E943405082F89CBA8
:102B20000631FCE51F0709F465CD033C2CE51207CF
:102B300060F1073D3CE5130708F4B5CB0E351D45A4
:102B400009F4B1CB22C00B359DE5190709F469CD15
:102B500058F40115FCE51F0709F456CD0F3D1C453F
:102B6000A1F40E94860D9FCB0C353DE5130709F4B7
:102B70005ACD0D351D4549F48091720382FB88279B
:102B800080F991E089270E94F10DF701828100818F
:102B90001181882309F449CDC8010E94340BD82E35
:102BA000682FC8010E945D05B8018D2D0E9498090B
:102BB0008C01882EF701D280A580A2944FE0A42238
:102BC00080915D038770A1F0CD2CDD2091F0812FE5
:102BD000807F803421F080E2800F883048F082E0EE
:102BE0000E94190780915D038770CC24C3948111E2
:102BF000C12CB12EB2943FE0B322FBE0FB1508F4E8
:102C00004ECDEB2DF0E0EB5BFC4D0C94A8221F9316
:102C1000CF93DF9380910C03807FA9F48091090307
:102C2000882389F080913E03D0910D0360910703C2
:102C300070910803A0910A03B0910B03C62FC7231C
:102C400016E0D81304C0DF91CF911F91089590E052
:102C5000109711F0CF3F19F401968770F2CF189FAB
:102C60009001199F300D1124F901E25FFC4F418161
:102C70004713F2CF40814613EFCF42814111ECCF91
:102C8000438154814A1B5B0B4639510528F78091DB
:102C90000C038F70806180930C03F901ED5EFC4F93
:102CA00080818F708061808387E093E00E94D910DB
:102CB000DF91CF911F910C94AB058F929F92AF92B1
:102CC000BF92CF92DF92EF92FF920F931F93CF9319
:102CD000DF93CDB7DEB761970FB6F894DEBF0FBEB6
:102CE000CDBF8C0185E0F801DE011D9601900D92AB
:102CF0008A95E1F7D801EC901196DC901197129625
:102D0000CC90129787E0882E83E0982E40910A039A
:102D100050910B034115510509F443C190910703EC
:102D200020910803892F82238F3F09F43AC113961B
:102D3000AD90BC901497F0900903F501E41BF50BDE
:102D4000FF2009F4FFC080910C03382F307FE63953
:102D5000F10508F0C8C0311185C0FC2C2D1124C02C
:102D60009E1122C0C11020C08F70806180930C031F
:102D7000C4010E94D91080910C03D80115968C9340
:102D80008F2D61960FB6F894DEBF0FBECDBFDF91D9
:102D9000CF911F910F91FF90EF90DF90CF90BF9058
:102DA000AF909F908F900895A114B10429F08E2DBB
:102DB0008D218F3F09F016C180E080FF14C04C2D9B
:102DC0006D2D8E2D0E948B05882369F087E093E09E
:102DD0000E94D91086E0E7E0F3E0DF011D928A95BA
:102DE000E9F7F12CCDCFAB2829F08E2D8D218F3F27
:102DF00009F0F5C080E0B82FB170AB2E80FF29C07C
:102E00004C2D6D2D8E2D0E948B05B82E811121C069
:102E1000ED86DE868D859E850E94760B292F229574
:102E20002F70223050F0243078F49F7051F0F80168
:102E30009581907F31F4FB2CA3CF9F7011F08823F4
:102E4000D1F3805E8830B8F3C8010E94D910BA2C43
:102E5000F2CFCC2009F494CF80910C038160809351
:102E60000C03BFCF2D1112C09E1110C0C1100EC097
:102E700015968C93C8010E94D91086E0F801A7E04E
:102E8000B3E001900D928A95E1F77ACFED86DE8668
:102E90008D859E850E94800B882309F1CC20F9F056
:102EA00080910C03803270F0209107033091080369
:102EB00038872F831986BB86AA868C87CE01079612
:102EC0000E94D91086E0F801A7E0B3E001900D92CE
:102ED0008A95E1F70E940716FF24F39451CFC801A9
:102EE0000E94D910F9CF332309F470CF2D110FC0F0
:102EF0009E110DC0C1100BC0F8018583C8010E944E
:102F0000D91086E0D4011D928A95E9F739CFED8674
:102F1000DE868D859E850E94800B882301F3CC2060
:102F2000F1F280910C03803268F220910703309116
:102F300008033A8329831B82BD82AC828E83CE0133
:102F40000196BECFE639F105E0F6FC2CCC2039F233
:102F50002D1116C09E1114C080910C0380FD8DCFE1
:102F6000982F907F09F489CFF8018583903F09F469
:102F700081CF982F907F905F8F70892B85837ACF38
:102F8000ED86DE868D859E850E94800B81119ACF0D
:102F900080910C03816080930C03C8010E94D910BA
:102FA000EFCECC2009F49BCFED86DE868D859E8505
:102FB0000E94800BF82E882309F491CF86E0F80157
:102FC000A7E0B3E001900D928A95E1F780910703A5
:102FD000909108030E94760B0E940716D1CE81E0E3
:102FE0008C2509CF81E08C25E8CE1F93CF93DF930A
:102FF000CDB7DEB767970FB6F894DEBF0FBECDBF73
:10300000342F4B8B252F5C8B6D8B7E8B8F8B8E891A
:103010009F89611110925F031A8A198A3D872E8752
:103020006F87998B888B86E0FE013D96DE011796AF
:1030300001900D928A95E1F7CE0107960E945D16E8
:10304000882389F016E080913E0390910D03891347
:1030500049C067960FB6F894DEBF0FBECDBFDF91B3
:10306000CF911F91089586E0FE013796DE011196FB
:1030700001900D928A95E1F78A859B85892B11F342
:103080008F81988589238F3FE9F220910D0330E0ED
:10309000C90101968770992740913E034817190688
:1030A00071F40E940B0E10920D0310923E0386E005
:1030B000E7E0F3E0DF011D928A95E9F7C3CF96E0E0
:1030C000929FD001939FB00D1124A25FBC4FFE01CF
:1030D000319601900D929A95E1F780930D030E942D
:1030E000AB05B0CF819FC0011124825F9C4F0E942D
:1030F0005D16882309F4ADCF80913E0390E00196E0
:103100008770992780933E039ECFE3E4F4E085E047
:10311000808380911A0190911B01A0911C018183F1
:103120009283A3838FE784838FEF858346E050E00B
:103130006CE170E0CF010C94EE22AF92BF92CF927F
:10314000DF92EF92FF920F931F93CF93DF9300D004
:1031500000D0CDB7DEB785E5E82E81E0F82E93E705
:10316000A92E93E0B92E10E0CC24C394D12CF70102
:1031700081917F01F894E82FE295EF70F0E021A1B2
:103180008F70A60102C0440F551F8A95E2F7CA014D
:10319000922F982B91A392A18095892382A3789452
:1031A00000C0EDE5F1E030E020E000E04191A42F27
:1031B000A295AF70B0E090968C9190E04F7002C0F5
:1031C000959587954A95E2F780FD4CC08C2D022E8F
:1031D00001C0880F0A94EAF7082B2F5F3F4F263073
:1031E000310521F7F701319780810E943E0950EAAD
:1031F0005A95F1F7F50180810817B1F1008381E05C
:10320000182BFFEFAF1ABF0A49E5E41641E0F406B8
:1032100009F0ADCF00917C03112341F181E080934F
:103220005C020E947E0490935B0280935A0280911C
:103230005A0290915B020E9463040697D8F0E02F37
:10324000F0E0E058FC4F8091730380838091740319
:1032500081838091750382838091760383831092AA
:103260005C0208C080E0B8CF80E0CACF80915C02E9
:103270008111DDCF0E94CE0C082F60917C03882342
:1032800009F452C019821A821B821C82862F90E098
:10329000BE016F5F7F4F80589C4F0E949E2081111E
:1032A00023C080915D028F5F80935D028630D0F1F4
:1032B000E0917B03F0E0E058FC4F10821182128213
:1032C0001382111101C0102F812F0F900F900F90BA
:1032D0000F90DF91CF911F910F91FF90EF90DF90B2
:1032E000CF90BF90AF90089510925D02E0917B0364
:1032F000F0E0BF0160587C4FDE0111969E012B5F0C
:103300003F4F00E0FB014191BF019D91491731F012
:10331000AF0141505109FA019083082FA217B3075A
:1033200089F7CFCF00E0CDCF70E060587C4F80911F
:103330007B0390E080589C4F0E94DD20C2CF1F92FB
:103340000F920FB60F9211242F933F934F935F93D9
:103350006F937F938F939F93AF93BF93CF93DF939D
:10336000EF93FF93D091E900DF708091EC00C82FBC
:10337000C17080FDC0E81092E9008091F000877F65
:103380008093F00078940E94200E1092E9008091C2
:10339000F00088608093F000CD2BCF70C093E900DF
:1033A000FF91EF91DF91CF91BF91AF919F918F915D
:1033B0007F916F915F914F913F912F910F900FBE31
:1033C0000F901F9018951F920F920FB60F92112415
:1033D0002F933F934F935F936F937F938F939F931D
:1033E000AF93BF93EF93FF938091E10082FF09C0F9
:1033F0008091E20082FF05C08091E1008B7F809385
:10340000E1008091DA0080FF24C08091D80080FF25
:1034100020C08091DA008E7F8093DA008091D900FD
:1034200080FF9BC080E189BD82E189BD09B400FEB7
:10343000FDCF81E080931E048091F903811109C0C2
:103440000E94C3020E948E038091E20084608093F8
:10345000E2008091E10080FF17C08091E20080FFD0
:1034600013C08091E2008E7F8093E2008091E200A1
:1034700080618093E2008091D80080628093D800C0
:1034800019BC85E080931E048091E10084FF29C06F
:103490008091E20084FF25C080E189BD82E189BD81
:1034A00089B5982F917080FFFBCF8091D8008F7DD8
:1034B0008093D8008091E1008F7E8093E10080911D
:1034C000E2008F7E8093E2008091E2008160809331
:1034D000E20080911F04882309F445C084E08093B2
:1034E0001E048091E10083FF27C08091E20083FFEA
:1034F00023C08091E100877F8093E10082E0809388
:103500001E0410921F048091E1008E7F8093E100E1
:103510008091E2008E7F8093E2008091E2008061E2
:103520008093E20042E060E080E00E945C038091D2
:10353000F00088608093F000FF91EF91BF91AF9110
:103540009F918F917F916F915F914F913F912F91BB
:103550000F900FBE0F901F90189519BC10921E046B
:103560001092F90376CF8091E30087FD93E090936A
:103570001E04B7CF0F931F930E94CE0C882321F017
:103580001F910F910C9472040E94720400916903C0
:1035900010916A0320916B0330916C03600F711FCF
:1035A000821F931F1F910F910895CF92DF92EF9288
:1035B000FF926B017C010E94CE0C8823A1F02FB7F3
:1035C000F894609165037091660380916703909110
:1035D00068032FBF6C197D098E099F09FF90EF903A
:1035E000DF90CF9008950E94BA1AF4CFCF92DF9265
:1035F000EF92FF926B017C010E94CE0C81110EC0F4
:103600000E947204C61AD70AE80AF90AC09269032E
:10361000D0926A03E0926B03F0926C03FF90EF90FC
:10362000DF90CF90089578941F921FB61F921124B7
:103630008F939F93AF93BF9380916503909166039F
:10364000A0916703B09168030196A11DB11D8093FD
:10365000650390936603A0936703B0936803BF91DB
:10366000AF919F918F911F901FBE1F9018951F9231
:103670001FB61F9211248F939F93AF93BF93809196
:103680007F03811113C08091650390916603A0911F
:103690006703B09168034196A11DB11D8093650336
:1036A00090936603A0936703B0936803BF91AF91B3
:1036B0009F918F911F901FBE1F9018958091E203DC
:1036C0000895CF93C82F882329F040E060E080E080
:1036D0000E941F0DC093E203CF910895CDB7DEB7CE
:1036E0006B970FB6F894DEBF0FBECDBF84B7877F50
:1036F00084BF0FB6F894A89580916000886180938C
:103700006000109260000FBE80E890E00FB6F89461
:1037100080936100909361000FBE85B7806885BF7C
:1037200085B7806885BF8DE494E0909337028093DD
:1037300036020E94C3020E948E038091E2008460E0
:103740008093E200789480911E048823A1F0009178
:10375000E9000F709091EC00892F817090FD80E856
:10376000082B1092E9008091E80083FD0E94200E52
:103770000F700093E90082E084BD93E095BD9AEF5D
:1037800097BD80936E001092690310926A031092A5
:103790006B0310926C030E94CE0C809300010E9478
:1037A000CE0C81110E949220809100018091000135
:1037B00094E0811190E090937C0384E0891B8093D6
:1037C0007B0384E90E943E0986E60E943E0987E960
:1037D0000E943E0986EC0E943E0984EF0E943E0949
:1037E00085EF0E943E0986EF0E943E0987EF0E9406
:1037F0003E0981E30E943E0983E30E943E09E3E71C
:10380000F3E0A0E8B3E011921D9203E0EB37F0077C
:10381000D1F790E080E00E94E8228A3E9E4F11F0AE
:103820000E94860D82E090E00E94E0228093F003E7
:103830000E94780D90937203809371030E949D18EB
:103840008FE39CE90197F1F700C000000E949D18EA
:103850000E94CE0CE4E08111E0E0F0E0E058FC4F83
:10386000808181FF08C06FEF7FEF90E080E00E94D1
:103870001C230E94520483E090E00E94E022682F03
:1038800070E090E080E00E9456071092B5038FEF41
:103890009FEF9093CF038093CE039093D1038093B7
:1038A000D0039093D3038093D2039093D503809356
:1038B000D4039093D7038093D6039093D903809336
:1038C000D8039093DB038093DA039093DD03809316
:1038D000DC03109288039093A2038093A10390933A
:1038E000A4038093A3039093A6038093A5039093CE
:1038F000A8038093A7039093AA038093A9039093AE
:10390000AC038093AB039093AE038093AD0390938D
:10391000B0038093AF0390E080E00E94E8228A3EEB
:103920009E4F21F00E94860D0E94851846E050E0CF
:103930006CE170E083E494E00E94D0228091430423
:103940008C7F11F40E9485180E94CE0C811102C058
:103950000E94982080914304837011F41092060114
:10396000809143048C7F8160809343040E945C0DAE
:103970000E94390D80E48093470487E091E09093A2
:103980007E0380937D0380E893E038E0432E480E69
:103990004D8ACC24CA94DC2CE12CF12C312C212C26
:1039A00080911E048530A9F480E4982E90E1A92E20
:1039B00022E1B22E80911E04853009F49AC00E9443
:1039C0000B0E0E94F60580E00E94611B80E00E94C1
:1039D000611B0E949D1881110E947204A1EFB3E047
:1039E000E0E8F3E0B12CA12C6A2C71908D91871541
:1039F00009F4F7C1872500E088248394982D982343
:103A000009F4EAC10E94CE0C7820882399F00F8334
:103A1000688681E0711001C080E089870E947E0481
:103A20008160782F9B878A874F81588569858B8530
:103A30000E94F517F501EF50FC4F808188268082A7
:103A4000772089F086E08A9DF0018B9DF00D11248E
:103A5000ED59FE4FE00FF11D8081712C8F3F19F061
:103A60008B8F7724739460908803A72CB12CC501A9
:103A7000860D911D099764F188E090E04C018A1849
:103A80009B08B50167577C4FA40189E893E00E9429
:103A90002223B5016F567C4FA40181E993E00E9477
:103AA0002223A401440F551FB501660F771F6F55E0
:103AB0007C4F81EA93E00E942223B50167567C4F38
:103AC000A40189E993E00E9422236A94609288030A
:103AD0008091880390E05B8CA52DB0E09D01220FC2
:103AE000331F2D563E4FAA0FBB1FBD016C567E4F94
:103AF00053C080911E04843051F181E00E94611B0B
:103B000081E00E94611B10927F0308E1602E712CFE
:103B10000FB6F894A895609260000FBE9092600076
:103B200083B7817F846083BF83B7816083BF7894CC
:103B3000889583B78E7F83BF0FB6F894A895809140
:103B40006000886180936000109260000FBE8091D9
:103B50001D04882309F42ECF0E949D18E0E8F3E0AD
:103B600081918111BFC27D887E12FACF23CF90E070
:103B7000FC01E857FC4FD9015C915183DB015C915A
:103B800051874B8C418A880F991FFC01E857FC4FE5
:103B9000128E118E91E0842F41E0480F971538F373
:103BA000809388036091B1037091B2038091B30355
:103BB0009091B4030E94D51A4B015C010E94BA1A7D
:103BC0006093B1037093B2038093B3039093B403F3
:103BD000A0918803E8E8F3E0AA8FB0E0A70196017E
:103BE000281939094A095B09298B3A8B4B8B5C8B65
:103BF000AB1310C12A8D209388032091E20300E0CB
:103C0000211108C020914304022F037019F0022FE4
:103C10000695069520910601213009F42BC1222337
:103C200009F411C1223009F430C2233009F437C23B
:103C300086E0E9EEF3E0DE01119601900D928A959F
:103C4000E1F79090EB038090EC03B090ED03A0902F
:103C5000EE031092EB031092EC031092ED0310921E
:103C6000EE03892D882909F448C08091E7039091DB
:103C7000E8030E9463049C019091E603992309F4F0
:103C80004CC223333105C8F19F3F19F09F5F9093D9
:103C9000E603992059F00E9434089FEF19140CF4A0
:103CA00091E0899F802D11248093EB03882059F0A7
:103CB0000E9434089FEF18140CF491E0899F802D26
:103CC00011248093EC033091EB033323B1F0209166
:103CD000EC03222391F005EB3003C001112499235A
:103CE00009F4F0C19093EB0315EB2103900111242B
:103CF000332309F4EBC13093EC038B2D8A2909F4AB
:103D000048C08091E4039091E5030E9463049C0104
:103D10009091E303992309F4FBC125363105C8F1DD
:103D20009F3F19F09F5F9093E303BB2059F00E94DF
:103D300012089FEF1B140CF491E0899F802D112431
:103D40008093ED03AA2059F00E9412089FEF1A14E5
:103D50000CF491E0899F802D11248093EE03309123
:103D6000ED033323B1F02091EE03222391F045EBD4
:103D70003403C0011124992309F4ACC19093ED03DD
:103D800055EB250390011124332309F4A7C1309387
:103D9000EE038091EB039091EC03892B9091ED035E
:103DA000892B9091EE03892B11F00E94A80686E0E2
:103DB000FE013196A9EEB3E001900D928A95E1F7EC
:103DC0000E94F6059091EF03891709F4E9CD0E944E
:103DD000F6058093EF03E4CD0F5F880C063009F001
:103DE0000DCE0FEFA01AB00A18E0A116B10409F029
:103DF000FBCD8FEF8C878D871E860E947E048160AD
:103E0000782F988B8F874C855D856E8588890E9479
:103E1000F517C8CE418D528D2A01712C612C09896C
:103E20001A892B893C89041515052605370530F4B8
:103E30001A8D11501A8FBF5F3296DACE480D591D78
:103E4000528F418FF8CF109203016093DE0370937D
:103E5000DF038093E0039093E10389E2E8E8F3E075
:103E6000A5EBB3E001900D928A95E1F781E0809394
:103E70000601DECE80910201081327C09091430411
:103E800093702091010130E081E09217130609F44C
:103E900080E0817080930501809148049091040135
:103EA000981739F08093040140E060E080E00E94C0
:103EB0001F0D0130B1F0002351F0023009F456C05B
:103EC000033009F4C0C080E02DC081E0E2CF8091D2
:103ED0000501882339F140E060E080E00E941F0D79
:103EE000F2CF80910301A82EAA0CA80EAA0C76E0AE
:103EF000972E9A0C892C36E3391510F466E3862E3A
:103F00006091440470914504809146040E94140617
:103F1000662E572E482EB12CA814B0F081E055E340
:103F2000591588F2909103019F5F909303018111CD
:103F30007FCE82E08093060180910501811178CEC9
:103F4000011176CE83E093CFF501E150FE4F8081E1
:103F500090910401892331F0242D462D652DC50152
:103F60000E94F10C4FEFA41AB40AD6CF809103013E
:103F7000A82EAA0CA80EAA0C56E0652E6A0C562C88
:103F800086E3861510F446E3542E2091470431E071
:103F9000230F08F42FEF30E050E040E0C701B601F6
:103FA0000E9489224901B12C442443942A2DA5144E
:103FB00030F081E035E3361508F0B4CF84CFF50159
:103FC000E150FE4F808190910401892331F180916D
:103FD000B5038150082E000C990B87FF22C0B40155
:103FE00020914704142D210F08F42FEFA101629FA7
:103FF000412D729F400D511D112460914404709118
:104000004504809146040E940D060E941406462F26
:10401000282F672FC5010E94F10C2FEFA21AB20AB8
:10402000C5CFFC01EB54FC4F318932130AC0FC01AF
:10403000EE0FFF1FEB54FC4F618D728D68157905F3
:1040400078F20197CACF80910301A82EAA0CA80E7E
:10405000AA0C96E0992E9A0C892C46E3491510F487
:1040600086E3882EB12CA81430F081E095E39915F1
:1040700008F058CF28CF20E040E060E0C5010E9462
:10408000F10C5FEFA51AB50AEECF00930201809103
:1040900043048370809301010E94A70C53CF609169
:1040A000DE037091DF038091E0039091E1030E94B1
:1040B000D51A693271058105910508F4B9CD1092C0
:1040C0000601B6CD81E08093EB030ECE81E08093B4
:1040D000EC0313CE81E08093ED0352CE81E0809318
:1040E000EE0357CEA9BCB9BC09B400FEFDCF809148
:1040F000D8008F7D8093D8008091E000826080930B
:10410000E0008091E00081FDFCCF0E940B0E52CCBC
:104110002D32314008F006CE3CCE2D32314008F031
:10412000B5CDEBCD61E070E082E191E00C947321BC
:1041300061E070E082E191E00C947A210F931F938B
:10414000CF93DF93D82FC92F8B010E9414220097A1
:1041500091F5D801ED2FFC2FEC01C35CDB4F2881DA
:104160002D932191EC01C25DDB4F2C8301968430AD
:10417000910591F786E0E3E4F4E0A6E3B4E0019072
:104180000D928A95E1F70E945E1B80933C040E9489
:10419000BA1A6E5F7F4F8F4F9F4F60932E047093BC
:1041A0002F04809330049093310481E0DF91CF910C
:1041B0001F910F91089580E0F9CF0F931F93CF9334
:1041C000DF93D82FC92F8B0160912E0470912F049B
:1041D00080913004909131040E94F61AD801ED2F9D
:1041E000FC2F90E080E02D91EC01C35CDB4F288335
:1041F000EC01C25DDB4F2C81219301968430910547
:1042000091F786E0E6E3F4E0A3E4B4E001900D92D8
:104210008A95E1F780913C04DF91CF911F910F9136
:104220000C94611B8EE14A9B02C08150E1F74A9BCE
:10423000FECF08955A9880E28A95F1F75A9A089528
:10424000FC013BE03A95F1F798E020E080E031E0B6
:1042500040E14A95F1F7880F4A9B02C0816023270D
:1042600042E04A95F1F7000040E14A95F1F791509C
:1042700079F790E19A95F1F799B132E03A95F1F733
:10428000000040E14A95F1F792FB992790F99227B7
:104290002081920F90830895EF92FF920F931F93C6
:1042A000CF93DF930F92CDB7DEB719828C017C01DB
:1042B000E60EF11C0E151F0561F481E09981911144
:1042C00080E00F90DF91CF911F910F91FF90EF90C1
:1042D00008950E941221CE0101960E942021F8012A
:1042E00081938F01E7CF9093420480934104529AC7
:1042F0005A9A0895909342048093410452985A9A8E
:10430000EA9AE9E6F0E080818F7C8083089561502D
:10431000770B91E001C0990F6A95EAF720E031E050
:10432000911108C0222391F05A9A80E28A95F1F700
:104330005A980895492F482339F05A9A232740E282
:104340004A95F1F79695ECCF5A98F9CF5A98EDCF58
:10435000FF920F931F93CF93DF93EC018C01060F15
:10436000111DC017D10731F4DF91CF911F910F912B
:10437000FF900895F9900E941A2168E08F2D0E9405
:104380008721EFCF1F920F920FB60F9211242F9318
:104390003F934F935F936F937F938F939F93AF93CD
:1043A000BF93CF93DF93EF93FF935A98529AC091A4
:1043B0004104D09142046D81662321F08E819F815A
:1043C0000E94A8210E941A2180E18A95F1F75A984B
:1043D00052985A9A80E18A95F1F76A81662309F129
:1043E0008B819C810E944C21E881F981882311F006
:1043F00088E001C082E080830E941221FF91EF914A
:10440000DF91CF91BF91AF919F918F917F916F91EC
:104410005F914F913F912F910F900FBE0F901F9082
:104420001895E881F981E4CFCF93DF93C0914104DF
:10443000D0914204F894529A5A9885E08A95F1F7FF
:10444000000052985A9A80E28A95F1F74A9B0CC074
:10445000529A5A9AE881F98181E08083789481E0C8
:1044600090E0DF91CF9108956D81662381F08E8178
:104470009F810E944C2181110AC0529A5A9AE88168
:10448000F98182E08083789482E090E0EACF0E9414
:10449000122180E28A95F1F75A98529A80E18A9522
:1044A000F1F76A81662321F08B819C810E94A8210B
:1044B0000E941A21E881F9811082789490E080E0CE
:1044C000D0CFAA1BBB1B51E107C0AA1FBB1FA61759
:1044D000B70710F0A61BB70B881F991F5A95A9F7AD
:1044E00080959095BC01CD01089597FB072E16F499
:1044F000009407D077FD09D00E94612207FC05D007
:104500003EF4909581959F4F0895709561957F4FEA
:104510000895052E97FB1EF400940E94A02257FDDB
:1045200007D00E94AE2207FC03D04EF40C94A022C8
:1045300050954095309521953F4F4F4F5F4F0895CF
:1045400090958095709561957F4F8F4F9F4F0895FF
:10455000EE0FFF1F0590F491E02D0994A1E21A2EB1
:10456000AA1BBB1BFD010DC0AA1FBB1FEE1FFF1F17
:10457000A217B307E407F50720F0A21BB30BE40B67
:10458000F50B661F771F881F991F1A9469F76095AE
:104590007095809590959B01AC01BD01CF01089568
:1045A000DC01CB01FC01F999FECF06C0F2BDE1BDF3
:1045B000F89A319600B40D9241505040B8F70895E2
:1045C000F999FECF92BD81BDF89A992780B50895DB
:1045D000A8E1B0E042E050E00C94D222DC01A40F4C
:1045E000B51F4150504048F0CB01840F951F2E91CC
:1045F0000E94FF2241505040D0F70895262FF9998C
:10460000FECF92BD81BDF89A019700B4021639F031
:104610001FBA20BD0FB6F894FA9AF99A0FBE089502
:104620000396272F0E94FF220E94FE22252F0E9420
:10463000FF22242F0C94FF220196272F0E94FF2295
:104640000C94FE22FB01DC0102C001900D9241504E
:104650005040D8F70895F894FFCF8F0B8F0B980B2D
:10466000980B9A0B980B980B980B8F0B8F0B9F0B3B
:10467000980B980B9F0B030F2B0FC1102B0FC11022
:104680005E0F7F0FC1107C1089101A131A13931339
:104690009313ED1307144F134F131214E814F71468
:0246A000F7140D
:1046A20001FFFF00FF00034F04670C460C420C3E63
:1046B2000C012D040F2E04043D0400FF8C80EB033B
:1046C20000020103818283E200E900EA00B500B63C
:1046D20000B700CD008301CC008A01920194012130
:1046E20002230224022502260227022A02B300B470
:1046F200006F007000946697C600000000F4F5F6A3
:10470200F73133181712110A09191613100B081A68
:1047120015140F0C07FFFFFF0E0D0633322D2C254B
:104722002434312E2B262335302F2A2722FFFFFF58
:104732002928215510320D10141026323055345FBD
:104742003F552755155504440244134425503A3C1D
:10475200373223320D3200210321142125102A1071
:104762001810070007001800298B10AE0DD014D0C6
:1047720026AE308B34813F8B278B158B049C029C99
:10478200139C25903AA437AE23AE0DAE00BF03BFF3
:1047920014BF25D02AD018D007E007E018E029027C
:1047A20002020202020104040404040401010404DA
:1047B20004040404040404010101020202020202CC
:1047C20001040404040404010104040404040404B0
:0647D200040401010100D6
:00000001FF
