:100000000C947A020C94C1020C94C1020C94C22389
:100010000C94C1020C94C1020C94C1020C94C10254
:100020000C94C1020C94C1020C94E31B0C949F1B12
:100030000C94371D0C94C1020C94C1020C94C102A3
:100040000C94C1020C94C1020C94C1020C94C10224
:100050000C94C1020C94131D0C94C1020C94C102A7
:100060000C94C1020C94C1020C94C1020C94C10204
:100070000C94C1020C94C1020C94C1020C94C102F4
:100080000C94C1020C94C1020C94C1020C94C102E4
:100090000C94C1020C94C1020C94C1020C94C102D4
:1000A0000C94C1020C94C1020C94C1020001010124
:1000B0000101010101010202020202020202020325
:1000C00003030303030303040404040404040505F5
:1000D00005050506060606060707070707080808B8
:1000E00008090909090A0A0A0B0B0B0C0C0C0D0D67
:1000F0000D0E0E0E0F0F0F101011111112121313FF
:100100001414151516161717181819191A1A1B1B77
:100110001C1D1D1E1E1F20202122222324242526D3
:1001200026272829292A2B2C2D2D2E2F303132320B
:10013000333435363738393A3B3C3D3E3F40414217
:10014000434445464748494A4C4D4E4F50515354FD
:10015000555658595A5B5D5E5F61626465666869B1
:100160006B6C6D6F7072737577787A7B7D7E808231
:10017000838587888A8C8E8F91939596989A9C9E7A
:10018000A0A2A3A5A7A9ABADAFB1B3B5B7BABCBE8A
:10019000C0C2C4C6C9CBCDCFD1D4D6D8DBDDDFE257
:1001A000E4E7E9EBEEF0F3F5F8FAFDFF2B001400BD
:1001B0001A000800150017002900040016000700A7
:1001C00009000A0065001D001B000600190005005B
:1001D00000000000000000572C41E2005F5D1300AA
:1001E00012000C0018001C00340033000F000E0039
:1001F0000D000B00310038003700360010001100F0
:1002000000000000000001572842E3003A003D00D2
:1002100040004300460049003B003E0041004400CE
:100220004A004B003C003F00420045004D004E009C
:100230000000000000000100010001005400560011
:10024000610060005F005300550057005E005D00D4
:100250005C006300670058005B005A0059006200B0
:100260000000000000000100135001001E001F00EC
:100270002000210022003500230024002500260054
:1002800027002D007B007C007D002F0030002E0019
:100290000000000000000100135001003900AD0013
:1002A000AB00A900AA00AC00BD00AE004F00520098
:1002B00051005000BE00A80079007A00615D605DC9
:1002C00000000000000001000100010029002B00D7
:1002D00014001A00080015000D00E10004001600CB
:1002E000070009001000E0001D001B0006001900B7
:1002F0000000000000000451E2002C004B0022002E
:10030000210020001F001E004E00270026002500AF
:1003100024002300310038003300370036002D0060
:10032000000000000000E500E600280001000100D8
:100330000F0001001700120013000100010001006E
:1003400001000A000C000100050011000B000E0066
:100350000000000000000100010001003F003E001D
:100360003D003C003B003A004D004A004F00520067
:10037000510050004500440043004200410040004D
:1003800000000000000010500100010005010902FA
:10039000A10185020901A10005091901290815001B
:1003A0002501950875018102050109300931158182
:1003B000257F95027508810609381581257F9501ED
:1003C00075088106050C0A38021581257F9501758F
:1003D000088106C0C005010980A101850319012A11
:1003E000B700150126B700950175108100C0050CF6
:1003F0000901A101850419012AA002150126A00204
:10040000950175108100C005010906A1018505054A
:100410000719E029E71500250195087501810205F6
:1004200007190029EF1500250195F07501810205D6
:10043000081901290595057501910295017503912A
:1004400001C005010906A101050719E029E715000A
:10045000250195087501810295017508810105073F
:10046000190029FF150026FF009506750881000573
:1004700008190129059505750191029501750391EA
:1004800001C009023B00020100A0FA0904000001BA
:10049000030101000921110100012240000705812B
:1004A0000308000A090401000103000000092111EA
:1004B00001000122B6000705820320000A12011084
:1004C0000100000008534601000100010200010C78
:1004D0000343006F0072006E0065000000100366A9
:1004E000006F006F007300740061006E0000000474
:1004F0000309040011241FBECFEFDAE0DEBFCDBF39
:1005000004B603FE27C080917F0490918004A091DF
:100510008104B09182048730904BA740B04BD1F456
:1005200010927F0410928004109281041092820431
:1005300014BE84B7877F84BF0FB6F894A8958091C6
:100540006000886180936000109260000FBEE0E060
:10055000F8E3099512E0A0E0B1E0E2EAFAE402C0B3
:1005600005900D92AA36B107D9F724E0AAE6B2E0C9
:1005700001C01D92AF37B207E1F70E946E1D0C94C7
:100580002B250C940000E8EDF0E080818E7F8083C5
:100590001092E2001092DA001092E100A0EEB0E0BA
:1005A0008C9181608C9380818F77808319BCA7EDBB
:1005B000B0E08C918E7F8C9380818F7E80831092AF
:1005C000310408952091E4003091E50095E6A901F9
:1005D0002091EC00822F817020FF06C08091E800FE
:1005E00080FF06C080E008952091E80022FD1AC037
:1005F00080915604882389F0853089F08091EB0042
:1006000085FD0FC02091E4003091E50042175307AB
:10061000F9F29150E1F684E0089582E0089583E0D4
:10062000089581E00895EF92FF920F931F93CF9367
:100630007C018B010E94E202C82F811117C08091BA
:10064000E80085FD0BC08091E8008E778093E8007C
:100650000E94E202882399F3C82F08C0F701819114
:100660007F018093F1000150110949F78C2FCF9140
:100670001F910F91FF90EF9008958091580487FF8C
:1006800013C08091E80082FF06C08091E8008B775C
:100690008093E80004C0809156048111F2CF089540
:1006A000809156048823D9F38091E80080FFF8CF29
:1006B0008091E8008E77ECCF982F9093E900242F5B
:1006C000762F50E0891731F07091EC002091ED0009
:1006D0005091F00021FD07C09F5F973071F7809324
:1006E000E90081E008953091EB003E7F3093EB000C
:1006F0003091ED003D7F3093ED003091EB003160A3
:100700003093EB007093EC002093ED005093F000D9
:100710002091EE0027FDE0CF80E00895CF92DF9298
:10072000EF92FF920F931F93CF93DF93C8EDD0E02A
:1007300088818F7E8883E7EDF0E08081816080830F
:1007400084E082BF81E08093310488818E7F88833A
:1007500002EE10E0F80110821092DA0081EEC82E4D
:10076000D12CF601108288818F77888388818068F8
:10077000888388818F7D888319BC109256041092DB
:100780005704109255041092540490EEE92EF12C67
:10079000F70180818B7F808388818160888342E03C
:1007A00060E080E00E945C03F60180818E7F8083A0
:1007B000F801808181608083808188608083F70177
:1007C00080818E7F8083888180618883DF91CF9153
:1007D0001F910F91FF90EF90DF90CF900895FC0153
:1007E00080915E0490915F0486179707A0F06115D1
:1007F000710529F49091E8009E779093E80090E0CD
:100800006115710551F4911108C08091E80082FFD3
:1008100034C080E00895BC01F2CF80915604882353
:10082000C1F18530C1F18091E80083FD30C0809135
:10083000E80082FDEACF8091E80080FFE1CF80915F
:10084000F3002091F200382F6115710519F028305E
:10085000310558F091E02830310509F090E0209101
:10086000E8002E772093E800CBCF81918093F100B0
:10087000615071092F5F3F4FE7CF80915604882365
:1008800041F0853041F08091E80083FFBECF81E0E8
:10089000089582E0089583E0089580E008958091AE
:1008A0003304089587E797E7909301088093000841
:1008B00088E19AE00FB6F894A895809360000FBE87
:1008C00090936000FFCF9C014FB7F89480919D03F7
:1008D00090919E03A0919F03B091A0034FBF821BF4
:1008E000930B08952FB7F89460919D0370919E0328
:1008F00080919F039091A0032FBF08952FB7F89484
:1009000080919D0390919E03A0919F03B091A003BD
:100910002FBF0895209146012223C9F02091A903F9
:1009200027FF15C0E62FE695E695E695EE31D8F45B
:10093000E80FF92FF11D677021E030E001C0220FB0
:100940006A95EAF720958281282322830895FC0185
:10095000329608962191621303C0DF0111971C9211
:10096000E817F907B9F70895209146012223C1F04D
:100970002091A90327FF14C0E62FE695E695E6959A
:10098000EE31F8F4E80FF92FF11D677021E030E047
:1009900001C0220F6A95EAF78281822B8283089533
:1009A000FC0132962FEF30E04191641751F02F3F58
:1009B00019F4411101C0232F3F5F3630A9F72F3FB3
:1009C00009F40895820F911D27FD9A95FC01628319
:1009D000089580919803811110929803089580954D
:1009E000909197039823909397030895809197038C
:1009F00090919603892B90919503892B80936C029B
:100A0000909198039923A1F0892B80936C02809197
:100A10004601882341F18091A90387FF24C08EE11C
:100A2000EEE6F2E090E0815000F591110E94E904B9
:100A3000E091B503F091B6033097E1F08091460163
:100A4000882359F08091A90387FF07C080916C0229
:100A500080936D0285E080936C020280F381E02D2B
:100A60008CE692E0099486E0DBCF21912223D9F233
:100A70009F5FD9CF0895E92FEE0FE90FEE0F8E0F8C
:100A8000982F977086958695869525E0829FF00130
:100A90001124EA58FC4F50E040E080E0219130E022
:100AA000092E02C0369527950A94E2F72170332764
:100AB000042E01C0220F0A94EAF7822B4F5F5F4F8A
:100AC0004530510559F70895E92FEE0FE90FEE0F64
:100AD0008E0F982F977041E001C0440F9A95EAF766
:100AE00086958695869595E0899FF0011124EA58B0
:100AF000FC4F30E020E070E05191DF011197CB0115
:100B0000022E02C0969587950A94E2F7817081952E
:100B10008527842385278C932F5F3F4F2530310510
:100B200059F70895209175039091440356E02913D5
:100B300002C080E0089530E0529FF001539FF00D15
:100B40001124EB5BFC4F7181761306C07081781322
:100B500003C07281741304C02F5F3F4F2770E7CF2B
:100B600081E008958091750390914403981301C02A
:100B700008958F5F8770FACF882341F08095909118
:100B800096038923809396030C94F6040895882392
:100B900039F090919603982B909396030C94F60459
:100BA0000895882321F00E94EF040C94F604089520
:100BB000882339F090919703982B909397030C9486
:100BC000F604089520913703309138032817390728
:100BD00071F09093380380933703E091B503F0915F
:100BE000B603309721F00084F185E02D0994089533
:100BF00020913503309136032817390771F090930F
:100C0000360380933503E091B503F091B603309736
:100C100021F00680F781E02D09940895E091B50355
:100C2000F091B603309721F00190F081E02D099406
:100C300080E00895CF93DF93EC0181E0898B809170
:100C400097039F81892B80939703809196039885C2
:100C5000892B809396030E94F604EA81FB813097EA
:100C600039F06C897D89CE010696DF91CF91099488
:100C7000DF91CF910895EF92FF920F931F93CF933F
:100C8000DF93EC018A85811139C0EB80FC8087E518
:100C9000F81A26E12E9DC0012F9D900D1124DC0134
:100CA000A85FBE4F1496ED91FC911597309731F0E7
:100CB00054966D917C91825F9E4F099586E18E9D41
:100CC00080018F9D100D1124085F1E4FF801878150
:100CD0000E94EF04F8018085982F909580919603EB
:100CE0008923809396030E94F604188219861B8636
:100CF0001E821D8210923B0310923A03DF91CF9126
:100D00001F910F91FF90EF900895FC01EE0FFF1FD0
:100D1000E80FF91FED56FD4F61834083228308954C
:100D20004095282F429F412D1124842F0895AF9282
:100D3000BF92CF92DF92FF920F931F93CF93DF93D7
:100D4000362F472FE82FF0E0E455FF4F71110FC009
:100D5000E4918E2F2E2F6E2F722FDF91CF911F9146
:100D60000F91FF90DF90CF90BF90AF900895C72F65
:100D7000D0E02491F22E022F10E056E0659FC001D2
:100D80001124EFEFF0E0BF010E946124832F90E077
:100D9000880F991F35E5369FD001379FB00D11247C
:100DA0008A1B9B0B982F990F980F6F01CC1ADD0AA5
:100DB000C09ED001C19EB00DD09EB00D11248B2FCE
:100DC000499FA0011124452F55276F01C41AD50A48
:100DD000C09EA001C19E500DD09E500D11245F01F8
:100DE000A91AB108AC9E6001AD9ED00CBC9ED00C7F
:100DF0001124CD2CDD24EC19FD09E09FE001E19FD9
:100E0000D00DF09FD00D1124ED2F62307105A1F0AF
:100E100050F46115710509F49ECF6130710581F0C0
:100E2000EB2F852F98CF6430710569F080F0663024
:100E3000710509F490CFF4CFE22F2B2F8D2F8BCF9C
:100E4000E22F252F88CFEB2F822F2D2F84CF2B2F12
:100E50008F2DE52F80CF0E947E049C01909123046A
:100E600080912404982B21F03093200420931F04B8
:100E70009091250480912604982B21F030931D0435
:100E800020931C04E091B503F091B603309749F02C
:100E900082E0809321040480F581E02D81E294E0DA
:100EA0000994089590E080E00E94F80590E080E0C9
:100EB0000E94E20510929603109295030E94F60498
:100EC00086E0E1E2F4E0DF011D928A95E9F71092F5
:100ED0001E0410921B0410923D030C942B07609388
:100EE000A5037093A6038093A7039093A8030C9483
:100EF00052070F931F9341E050E060E070E004C0A0
:100F0000440F551F661F771F8A95D2F7CB01BA0190
:100F100060957095809590950091A5031091A6031A
:100F20002091A7033091A803602371238223932388
:100F30001F910F910C946F079091940380958923D2
:100F400080939403282F277039F4282F082E000C43
:100F5000330B9217130621F49091AA0392FF07C056
:100F60008595859585950E9479071092940308953B
:100F70000F931F9341E050E060E070E004C0440F25
:100F8000551F661F771F8A95D2F78091A503909110
:100F9000A603A091A703B091A8038A019B01082B87
:100FA000192B2A2B3B2BC901B8011F910F910C94CF
:100FB0006F076093990370939A0380939B039093B8
:100FC0009C030C945207409123048D3E59F4809168
:100FD000240487FF0DC01092240441110BC010920D
:100FE0001E0408C08E3E81F48091240418169CF3E0
:100FF000442381F08091250490912604892B09F0E7
:101000005AC010921B0408958F3E49F447FFF0CF59
:1010100010922304809124048111ECCFE0CF803F13
:1010200019F41416ACF3E4CF90912504893F29F408
:101030001916F4F610922504DBCF8A3F19F497FFB6
:10104000D7CFF8CF909126048B3F29F497FFD0CFCC
:1010500010922604CDCF8C3F19F41916CCF3C8CFCB
:101060009FE0980F983090F4815F990B21E030E079
:10107000B90102C0660F771F8A95E2F7CB01809510
:1010800090912204892380932204B2CF8D3F31F4C2
:1010900080913D038E7F80933D03AACF8E3F21F444
:1010A00080913D038D7FF7CF8F3F09F0A1CF8091D5
:1010B0003D038B7FF0CF0895882379F19CEF980F43
:1010C000913A38F4682F8CE692E00E948A040C94DE
:1010D000F60490E2980F983050F4877091E001C0C8
:1010E000990F8A95EAF7892F0E94EF04F0CF9BE5CC
:1010F000980F933020F490E080E00C94F80598E588
:10110000980F973120F490E080E00C94E2058D3E3A
:1011100020F00E94E3070C942B07089580913D0373
:1011200080FD16C081FD16C082FD16C080911B0493
:101130008823A1F0883280F428E0829FC001112426
:1011400068E270E00E947524862F672B39F00895BD
:1011500082E0089584E0089588E0089581E008958C
:1011600080913D0380FD14C081FD14C082FD16C036
:1011700080911E04882381F0843180F422E3829FD1
:10118000C001112464E170E00E947524862F089547
:101190008CE0089589E1089585E0089582E308953B
:1011A0008D3E31F40E94B008819580932404089507
:1011B0008E3E19F40E94B008F8CF8F3E31F40E94A1
:1011C000B0088195809323040895803F19F40E940C
:1011D000B008F8CF893F29F40E948E088093250437
:1011E00008958A3F21F40E948E088195F7CF8B3FA6
:1011F00031F40E948E0881958093260408958C3FD7
:1012000019F40E948E08F8CF9FE0980F983070F480
:10121000815F990B21E030E001C0220F8A95EAF747
:1012200080912204822B8093220408958D3F31F413
:1012300080913D03816080933D0308958E3F21F4AA
:1012400080913D038260F7CF8F3FB9F780913D03D6
:101250008460F1CFCF93C82F882309F46FC08CEF3F
:101260008C0F813AC0F580914601882311F180915D
:10127000A90387FF1EC0EC2FE695E695E695F0E002
:10128000E459FD4F828190E04C2F477021E030E01F
:1012900002C0220F331F4A95E2F782239323892B42
:1012A00091F06C2F8CE692E00E948A040E94F60472
:1012B0000AC0EEE6F2E084E792E02191C21789F3DA
:1012C0008E179F07D1F76C2F8CE692E00E94B40432
:1012D000CF910C94F60480E28C0F883068F4C770CC
:1012E00021E030E001C0220FCA95EAF78091970310
:1012F000822B80939703ECCFEBE5EC0FE33040F4C7
:10130000F0E0E75AFE4F808190E0CF910C94F80511
:10131000E8E5EC0FE73150F4F0E0EE0FFF1FE45A80
:10132000FE4F80819181CF910C94E205CD3E30F04B
:101330008C2F0E94D008CF910C942B07CF91089549
:10134000F894E82FE295EF70F0E031A1282F2F708C
:1013500081E090E001C0880F2A95EAF7982F9095D8
:10136000932391A392A1892B82A3789408959091BD
:10137000A90392FF06C0282F28712830F9F4877F2F
:10138000846093FF06C0282F28712831F1F4877EEE
:1013900084612091AA0320FF06C0382F38713830AD
:1013A000D9F4877F816021FF06C0282F287128315A
:1013B000D1F4877E816194FD877E0895282F247162
:1013C0002430F9F68B7F8860DCCF282F24712431FC
:1013D00001F78B7E8861DDCF382F3171313019F7FD
:1013E0008E7F8860E0CF282F2171213121F78E7EFA
:1013F0008861E1CFCF93DF93972F70E026E0929F33
:10140000600D711D1124FB0130E3839FE00DF11D80
:101410001124EE0FFF1FE455FE4FC591D491CE016C
:10142000C238D105B9F1E8F5C133D10509F499C045
:1014300050F5C932D10509F48DC0CA32D10509F47D
:1014400097C0C11521E5D20708F0BFC0C11530E52E
:10145000D30708F016C1C83ED10508F09DC0C13EB3
:10146000D10568F5C83AD10508F089C0C53AD1055B
:1014700008F0FFC0C130D10511F1209709F443C035
:101480002497E8F440C0C533D10509F45CC0C933E2
:10149000D105B9F62091A903237089F080EE90E080
:1014A0000EC0C33ED10591F168F4C03ED105F9F0FC
:1014B000C23ED10531F62091A90322FD20C0DF9163
:1014C000CF910895C63ED10561F1C73ED10581F1A6
:1014D000C43ED10509F0B5CF2091AA0321FFEFCF7B
:1014E0008091A90384FD0FC087EE90E0E8CF2091A2
:1014F000A90320FD12C13091AA0330FFE0CF83EE93
:1015000090E024FFDCCF90E080E0D9CF2091A903C8
:1015100022FD06C13091AA0330FDC0CF24FFCFCFFA
:10152000F2CF2091A90323FFCACF24FDECCFDCCF5B
:101530002091A90323FDF7C03091AA0331FFEECF1C
:1015400084EE90E0BCCF2091A90325FFB8CF89E2BB
:1015500090E0B5CF2091A90325FFB1CF85E390E0BE
:10156000AECF2091A90326FFAACF8AE290E0A7CFB1
:101570002091A90326FFA3CF81E390E0A0CFCF3B2A
:10158000D10508F6C85AD0E0CC0FDD1FC45ADE4F93
:1015900088819981946493CFC11520E2D20760F4C9
:1015A000C11531E0D30708F08ACFCE019065CD3E5A
:1015B000D10508F084CFA7CFC11580E4D80708F47F
:1015C000A2CFCE019F70906A7ACFC11595E5D90759
:1015D00010F5C11524E5D20708F088C0C11533E520
:1015E000D30708F06FC0C11582E5D80708F465C0BD
:1015F0009E012370332781E090E002C0880F991F7D
:101600002A95E2F7C695C69520E2C29FE001112413
:101610008C2B9D2B50C0C11599E5D907A0F4C1159D
:1016200028E5D20708F067C0C11536E5D30708F0F2
:101630006ACF8C2F0E94B70990E0982F88278827BF
:101640009F7190623CCFC1158AE5D80708F458C055
:10165000CE0190568115904208F055CF8D2F8F7195
:101660000E94B70990E0982F882788279F718C2BBC
:10167000E8CFC55AD0E0C75ADE4F888190E0906429
:101680001ECF9E01E4E036952795EA95E1F7237099
:101690008C2F86958695837030E2839FC00111243C
:1016A000922BC37021E030E002C0220F331FCA9595
:1016B000E2F7822B932B9C6802CF9C2F8827816FA7
:1016C000906AFDCE9E012370332781E090E002C036
:1016D000880F991F2A95E2F7C695C69530E2C39FF9
:1016E000E00111248C2B9D2B9A68E9CE9C2F882732
:1016F000846F906AE4CE9C2F8827806F906ADFCE3B
:101700008C2F8F700E94B70934E0D695C7953A9513
:10171000E1F7CF709C2F9069D2CE89E390E0CFCED5
:1017200082EE90E0CCCE86EE90E0C9CEBF92CF9212
:10173000DF92EF92FF920F931F93CF93DF938C0171
:10174000C090A503D090A603E090A703F090A80353
:101750008091990390919A03A0919B03B0919C036F
:10176000C82AD92AEA2AFB2ACFE1D0E0BC2ED70129
:10177000C6010C2E04C0B695A795979587950A9437
:10178000D2F780FD0EC0219788F7B12C8B2DDF9109
:10179000CF911F910F91FF90EF90DF90CF90BF906E
:1017A0000895B8018C2F0E94FA09019761F3EECFDA
:1017B000CF93DF93EC010E94960BBE01DF91CF9196
:1017C0000C94FA090E94D80B292F2F7092959F70C4
:1017D00092509E3078F4E92FF0E0E35DFA4D0C94DE
:1017E000A824803F19F020F4883E20F481E0089579
:1017F000843FE1F380E00895883EC0F3813FD1F754
:10180000F5CF822F8695869586950895CF93DF93A1
:101810009C013A9521153F4168F5EC01CC27D17028
:10182000DC01AA27B270AC01442754709C01222726
:10183000387094FF11C080E1CD2B09F480E0AB2B10
:1018400009F08062452B09F08064232B09F0806841
:10185000FB01DF91CF91099481E0CD2B09F480E069
:10186000AB2B09F08260452B09F08460232B81F3B8
:101870008860EECFDF91CF910895CF93DF93EC0195
:101880000E945C08CE01805E9109089720F06CEB05
:1018900075E0209711F461ED75E0CE01DF91CF91F5
:1018A0000C94060CFC018081813029F4FB018081BD
:1018B00091810C943D0C823021F4FB018281938153
:1018C000F8CF0895CF93DF93EC01805E91090897DC
:1018D00020F067EC75E0209711F468ED75E0CE011B
:1018E0000E94060C8C2FDF91CF910C942A09FC01E9
:1018F0008081813029F4FB01808191810C94620CFC
:10190000823021F4FB0182819381F8CF0895CF9337
:10191000DF93EC018881823039F4FB01828193816D
:101920000E94620C81E08B87DF91CF9108950F9325
:101930001F93CF93DF93C62FD42F022FFC018281F8
:101940008823A1F0609362040E947E049093610456
:1019500080936004C77081E001C0880FCA95EAF7E0
:10196000DF91CF911F910F910C94D8058091620463
:10197000681338C080916004909161040E946304F0
:10198000843B910578F510E21D0FCD17B9F080E288
:101990008C0F883040F4C77081E001C0880FCA9571
:1019A000EAF70E94D105183048F481E09D2F977026
:1019B00001C0880F9A95EAF70E94D805802F0E94EF
:1019C0002A09802F0E945C08183098F4D77081E0B3
:1019D00001C0880FDA95EAF7DF91CF911F910F913F
:1019E0000C94D105C77081E001C0880FCA95EAF751
:1019F000F3CFDF91CF911F910F910895CF93DF9394
:101A000000D00F92CDB7DEB790915604943019F5FF
:101A100089837B836A8382E08093E9008FEF9091D2
:101A2000E800815095FD06C095ED9A95F1F700000C
:101A30008111F5CF8091E80085FF0DC050E040E0B6
:101A400063E070E0CE0101960E9413038091E800EC
:101A50008E778093E8000F900F900F90DF91CF91D9
:101A60000895BC0184E00C94FE0CBC0183E00C944E
:101A7000FE0C9C0182E08093E9009FEF8091E800DA
:101A8000915085FD06C085ED8A95F1F70000911112
:101A9000F5CF8091E80085FF0CC050E040E066E0A3
:101AA00070E0C9010E9413038091E8008E77809353
:101AB000E8000895CF93DF93EC01809146018823DD
:101AC000B1F18091A90387FF32C060E282E0809388
:101AD000E9008FEF9091E800815095FD06C095EDEB
:101AE0009A95F1F700008111F5CF8091E80085FF0C
:101AF0001BC08091460170E050E040E0811104C0BD
:101B000050E040E068E070E0CE010E941303809155
:101B1000E8008E778093E80080E2FE01A4E3B4E061
:101B200001900D928A95E1F7DF91CF91089568E0D9
:101B300081E0CDCF539A3BB1377F2BB128604FB7AF
:101B4000F89483E992E0FC015191CF0168E02BB950
:101B5000000000C057FF3BB9550F000000C000C097
:101B600000C03BB900C06A9591F7F3E085339F0749
:101B700051F74FBF8FE594E00197F1F700C00000E7
:101B8000089580919202811110C08091D8008061E7
:101B90008093D8008AE18A95F1F700C08091D9003E
:101BA00080FF0AC081E08093920281E090919202CE
:101BB000913009F080E0089582E0809392020E94C3
:101BC000C30210925604F1CFFF920F931F93CF934D
:101BD000DF93EC01162F042FF22E0E94C10D81110C
:101BE0000FC0CB31D10564F02F2D402F612FCE01D6
:101BF0004B97DF91CF911F910F91FF900C94850629
:101C00000E94C10D882341F0CB31D1052CF42F2D3A
:101C1000402F612FCE01EDCFDF91CF911F910F911A
:101C2000FF900895FF920F931F93CF93DF93182F88
:101C3000062FF42ED0E0C0E02F2D402F612FCE01D3
:101C40000E94E40D2196C633D105B1F7DF91CF9103
:101C50001F910F91FF90089520918D0230E0909197
:101C60007904937059F0F901EA5AFE4F808181118D
:101C70000EC094609093790410923B01C9010196C3
:101C800063E070E00E94612480938D0208958430A7
:101C900010F09C60EFCF880F880F982BEBCF8091CE
:101CA0008C0290917904937089F0E82FF0E0EE5A5D
:101CB000FE4F908190937A0491E0833008F090E099
:101CC000919590937B049CE890937C048F5F837044
:101CD00080938C020895CF9384E090E00E94E024EA
:101CE000C82F82E290E00E94E024982F8C2FCF91A1
:101CF00008956AEE7EEF90E080E00E941C2560E08F
:101D000082E090E00E94FE2460E083E090E00E9488
:101D1000FE241092990310929A0310929B03109242
:101D20009C0360E084E090E00E94FE2460E082E298
:101D300090E00E94FE2460E085E090E00E94FE2496
:101D400060E086E090E00E94FE246FEF87E090E084
:101D50000E94FE2440E050E0BA0188E090E00E943A
:101D6000102560E08DE090E00E94FE2440E050E00D
:101D7000BA0188E190E00E94102560E087E190E0E0
:101D80000E94FE2440E050E0BA018CE190E00E9405
:101D9000102570E060E080E290E00E941C2540E0A9
:101DA00050E0BA0188E190E00E94102540E050E048
:101DB000BA018FE090E00E94102540E050E0BA01A7
:101DC00083E190E00C941025CF93C091AA03C2FB4D
:101DD000992790F9981781F080FBC2F9C093AA0364
:101DE0006091A90384E090E00E94FE246C2F82E2BF
:101DF00090E0CF910C94FE24CF9108951092970318
:101E000080914601EEE6F2E0882359F08091A90323
:101E100087FF07C08EE1DF011D928A95E9F70C94D8
:101E2000520786E0F8CF1F93CF93DF93CDB7DEB78D
:101E3000AA970FB6F894DEBF0FBECDBF88E594E039
:101E40002091F100FC012193CF01F4E080369F073F
:101E5000B9F780915904833009F46FC0B8F4813028
:101E600009F446C0823009F4B0C08091E80083FFD5
:101E70007BC280915804909159049A3008F074C242
:101E8000E92FF0E0E55CFA4D0C94A8248A3009F4BF
:101E90008BC08B3009F46EC0893039F780915804BB
:101EA000813219F780915C0490915D040297E8F605
:101EB0008091E800877F8093E8008091E80082FFAE
:101EC00037C09091F3008091F200029729F480913D
:101ED000F1008B7F813021F48091F10080933304F5
:101EE0008091E8008B778093E8000E943D03BDCF8E
:101EF00080915804813A09F0B8CF8091E800877F3B
:101F00008093E80080915C0490915D04892B61F4DA
:101F100060E284E394E070E00E94EF038091E800C7
:101F20008B778093E800A1CF60E090E080E0F3CF72
:101F3000809156048111C1CF98CF80915804813A85
:101F400009F093CF80915C0490915D04892B09F096
:101F50008CCF8091E800877F8093E8008091E80033
:101F600080FFFCCF809146018093F1008091E800D2
:101F70008E77B9CF80915804813209F076CF809165
:101F80005C0490915D04892B09F06FCF8091E8008B
:101F9000877F8093E8000E943D0380915A048093DC
:101FA00046010E94FE0E61CF80915804813209F0F3
:101FB0005CCF8091E800877F8093E8000E943D031A
:101FC00080915B048093320450CF80915804813A11
:101FD00009F04BCF8091E800877F8093E8008091E3
:101FE000E80080FFFCCF80913204BECF803899F0AA
:101FF000823809F0B9C180915C048F70873008F095
:10200000B3C18093E9008091EB0085FB882780F9BC
:102010001092E90006C080915404909155049111EA
:1020200082609091E800977F9093E8008093F100A0
:102030001092F1008091E8008E7792C1882309F414
:1020400080C1823009F090C180915A04811183C10E
:1020500080915C048F702FEF280F263008F084C128
:102060008093E9002091EB0020FF75C1933031F49B
:102070008091EB0080628093EB006DC19091EB004A
:1020800090619093EB0021E030E001C0220F8A952F
:10209000EAF72093EA001092EA008091EB00886052
:1020A000EACF811161C110915A041F778091E3003A
:1020B0008078812B8093E3008091E800877F809374
:1020C000E8000E943D038091E80080FFFCCF8091F2
:1020D000E30080688093E30082E0111183E0809345
:1020E000560442C18058823008F03EC180915A04A3
:1020F00090915B048C3D23E09207A1F583E08A83F5
:102100008AE289834FB7F894DE01139620E03EE01F
:1021100051E2E32FF0E050935700E49120FF03C019
:10212000E295EF703F5FEF708E2F90E0EA30C0F0E5
:10213000C7968D939D932F5F243159F74FBF8091A0
:10214000E800877F8093E8006AE270E0CE010196A4
:102150000E94EF038091E8008B778093E80004C130
:10216000C096E7CF40915C0450915D04292F33273E
:102170002330310509F444C078F52130310509F4E4
:102180006FC08BE390E0E2E8F4E02230310509F023
:10219000EBC02091E800277F2093E80020915E04A7
:1021A00030915F048217930708F49C0140E02115E9
:1021B000310509F064C0411162C08091E80082FDE0
:1021C000C9CF80915604882329F2853019F2809175
:1021D000E80083FFF2CFBECF21323105A9F12232D0
:1021E000310509F0C1C04115510509F443C0413022
:1021F000510509F0B9C086EB90E0ECE8F3E0C9CFF7
:10220000992781309105C1F0009759F0029709F0A4
:10221000ABC0EFECF4E0E4918E2F90E0EFECF4E053
:1022200007C0EFEEF4E0E4918E2F90E0EFEEF4E0E3
:10223000009709F499C0ADCFEDEDF4E0E4918E2F55
:1022400090E0EDEDF4E0F4CF4115510571F041302F
:10225000510509F089C089E090E0EDEAF4E099CFFA
:1022600082E190E0EDEBF4E094CF89E090E0E4E9E6
:10227000F4E08FCF80E490E0E2E4F4E08ACF809154
:102280005604882309F466CF853009F463CF809122
:10229000E80083FD5FCF8091E80082FD8ECF8091C2
:1022A000E80080FF84CF9091F3008091F200211527
:1022B000310519F08830910550F041E0089709F098
:1022C00040E08091E8008E778093E80070CF4491E1
:1022D0004093F1003196215031090196E8CF8038C2
:1022E00009F042C08091E800877F8093E8008091E8
:1022F00057048093F1009ECE811136C010915A048C
:10230000123090F58091E800877F8093E800109369
:1023100057040E943D03112311F084E005C0809111
:10232000E30087FDFACF81E08093560442E061EC40
:1023300081E00E945C0342E261EC82E00E945C0367
:1023400013C080915A04813079F481E0933009F010
:1023500080E0809355041092E9008091E800877F27
:102360008093E8000E943D038091E80083FF0AC04B
:102370008091E800877F8093E8008091EB00806285
:102380008093EB00AA960FB6F894DEBF0FBECDBFC8
:10239000DF91CF911F9108954F925F926F927F923C
:1023A0008F929F92AF92BF92CF92DF92EF92FF9265
:1023B0000F931F93CF93DF9300D000D00F92CDB730
:1023C000DEB77C01DC0113968D919C911497892BCB
:1023D00041F01C911196DC90812F8D218F3F09F0E7
:1023E0003AC50F900F900F900F900F90DF91CF9103
:1023F0001F910F91FF90EF90DF90CF90BF90AF9023
:102400009F908F907F906F905F904F9008950E9463
:10241000960B082F682F89819A810E946405E12F0D
:10242000F0E0B6E0DB9EE00DF11D112420E3029FF9
:10243000E00DF11D1124EE0FFF1FE455FE4F059135
:102440001491D70112968C91811145C00036BDE5DB
:102450001B0709F4ACC00136EDE51E0709F4AFC057
:102460000F35FDE51F0709F076C0D70112968C9154
:10247000882309F492C080919703817191E009F457
:1024800090E090933903811186C08AE20E942A0964
:1024900080919403877009F4A4CFD70112968C9190
:1024A000882309F49ECF82E00F900F900F900F9039
:1024B0000F90DF91CF911F910F91FF90EF90DF90E0
:1024C000CF90BF90AF909F908F907F906F905F90D4
:1024D0004F900C949C07809134018F3F09F4B6CF44
:1024E00058E0C52E51E0D52EB12CA12C99249394FF
:1024F00080913401082E000C990B8A159B050CF471
:10250000A5CFD60116968C9116978823E9F01996D7
:102510008D919C918017910739F480913A039091A5
:102520003B038017910781F0F60197861487038794
:102530008189811103C0C6010E941A06C601069650
:102540000E943B0610929603FFEFAF1ABF0A26E1E6
:10255000C20ED11CCDCFC80197558F3F9105C1F157
:10256000B8F1043FFCE51F0709F4EAC008F0D3C046
:10257000093D3CE5130709F4DFC00A3D8CE5180767
:1025800009F4EAC0083D9CE5190709F068C026E295
:1025900041EE61EECDC08CE479CF80913903811199
:1025A00004C08AE20E945C0873CF8CE4FBCFF70181
:1025B0008281882309F46CCF0E942C0E69CFD70149
:1025C00012968C91882309F463CF0E944F0E60CF3E
:1025D00020913401022E000C330B2817390714F414
:1025E00080933401F701228136E1389F5001399FF1
:1025F000B00C1124C501885F9E4F6C01DC01509620
:102600002C935097928116968C911697992309F4E2
:1026100074C01A961C930E9319978F5F16968C931D
:102620000E947E04F60196878587809198038783B0
:102630008091960390919703892B80870190F08178
:10264000E02D309741F0D60154966D917C91C501F3
:10265000825F9E4F099510933B0300933A03D70185
:1026600012968C91882309F409C4109262040230F6
:10267000BCE51B0708F44EC10631ECE51E0730F03F
:10268000C8018B5F9C45099708F044C10E946B0EFE
:102690009093AA038093A9030031FCE51F0709F476
:1026A00008C108F099C008303CE5130709F4F3C0ED
:1026B00008F068C004309CE5190709F4E4C008F08C
:1026C0004EC00230BCE51B0709F4D7C08091A903B6
:1026D000826003301C4509F4D3C06091A9031091B6
:1026E000AA0384E090E00E94FE24612F82E290E041
:1026F0000E94FE240E94FE0ECBCE882309F4AFCFA9
:10270000F6018189882309F4AACFC501825F9E4F13
:102710000E943B06A4CF063FACE51A07C9F0A0F023
:1027200027E245EE66EE073FECE51E0709F097CF7E
:10273000C7010E94970CACCE27E245EE65EEF8CFBC
:1027400026E241EE60EEF4CF27E245EE64EEF0CFF4
:1027500026E241EE62EEECCF28E241E0EFCF80913D
:10276000A90380610630FCE51F0709F489C0809148
:10277000A903886007301C4508F482C08091A90332
:1027800080627EC08091A9038D7F0C303CE51307E9
:1027900009F476C070F48091A9038C600A309CE53E
:1027A000190709F46DC008F47AC08091A9038E7FDF
:1027B00067C08091A903877F0E30BCE51B0709F431
:1027C0005FC08091A9038B7F0F301C4508F458C06F
:1027D0008091A9038F7E54C00C3FFCE51F0709F4CC
:1027E00056C030F503313CE5130709F46AC078F4AC
:1027F00001319CE5190709F460C002311C4509F05C
:102800006CCF0E94FE0E8091A9038F7739C00531ED
:10281000BCE51B0709F45DC008F471C08091AA03F0
:1028200081600B3F1C4509F058CF8093AA0355CF18
:1028300001152DE5120709F448C070F40E3F8CE530
:10284000180799F18091AA038E7F0F3F1C4568F30A
:102850008091AA038360E9CF0230ADE51A0709F43D
:1028600057C008F442C060E003301D4509F035CF81
:102870008EE090E00E94FE2430CF8091A903816019
:102880008093A9032ACF8091A9038460F9CF809116
:10289000AA038260CACF8091A9038064F1CF0E940D
:1028A000FE0E8091A9038068EBCF8091AA038D7FF3
:1028B000BCCF8091A9038F7DE3CF8091A9038F7B4B
:1028C000DFCF8091A903837FDBCF8091AA038C7F28
:1028D000ACCF8091A90382FB992790F921E0922740
:1028E00090FB82F990FB83F9CBCF8091AA03982FBC
:1028F000909591708E7F892B90FB81F996CF0E94E5
:10290000FE0E9091A903892F97FB87F98058B8CFC5
:1029100061E0AECF0631FCE51F0709F0C2C280912D
:1029200097038A7A91E009F490E090933C0369E27E
:10293000811165E38CE692E00E94B4040E94F604E3
:10294000A7CD80913C0369E2811165E38CE692E0BA
:102950000E948A04F3CF0E94FE0E2FEF34E38CE036
:10296000215030408040E1F700C000000E94520436
:1029700081E0B7C280E0B5C2C8010E943B05D82EF5
:10298000C1C2E12FEF70AE2E107F19F0A29420EF9C
:10299000A222DD20C9F0AA2069F080E2800F8830F1
:1029A00010F081100BC080919703A82AA092970382
:1029B0000E94F604802F0E942A0915C08091960378
:1029C000A82AA0929603F4CF802F0E945C08AA2028
:1029D00051F0005E083010F0811043C08A2D0E9433
:1029E000EF040E94F604AB2DA850BB0B149710F413
:1029F0000E940E06CC20A9F08091940380FD11C0A6
:102A0000F70112828595859585950E94B807C701C3
:102A10000E94CC11809194038595859585950E949F
:102A2000790785E0F701DE01119601900D928A95F4
:102A3000E1F789819A810E943B059A81E981F0E062
:102A400026E0929FE00DF11D112430E3839FE00DFD
:102A5000F11D1124EE0FFF1FE455FE4F8591949157
:102A6000C0CCA09480919603A822A0929603B9CFDF
:102A7000F12FFF709F2E107F103219F0929490EF7B
:102A80009922882071F021E0821681F1DD20D9F1B0
:102A9000AA2091F1F701858180FF8CCF8F7085830B
:102AA0002BC0DD20B1F090919803892D892BA110C6
:102AB00003C00E94D80597CF31E0A312FACF20912E
:102AC000AA0322FD90CF981709F48DCF8093980325
:102AD0008ACFA11006C00E94E904892D0E94D10569
:102AE00082CF81E0A81609F47ECFF5CFDD2031F04A
:102AF00095E09A1508F477CF892DDBCFA4E0AA15CD
:102B000008F471CFEACFAA2041F3F9E38F1209C08C
:102B10002FEF37EE83E0215030408040E1F700C0D6
:102B20000000802F0E945C085ECF812F86958695DD
:102B3000837061F0813009F056CFC8019370D110D5
:102B400002C090E080E00E94E2054DCFC801937082
:102B5000D11002C090E080E00E94F80544CF802FA1
:102B6000DD2029F00E94D0080E942B073CCF0E9454
:102B7000E307FACF812F837009F066C0D11033CFFD
:102B8000802F829586958770880F880F602F6F70D1
:102B9000462E512C712C612C082E04C0440C551C5F
:102BA000661C771C0A94D2F740E050E0BA0104FF9B
:102BB0000FC04FE050E060E070E004C0440F551FCC
:102BC000661F771F8A95D2F740955095609570954E
:102BD000812F869586958370823019F1D8F4009103
:102BE000990310919A0320919B0330919C038130AB
:102BF00069F04429552966297729CB01BA01602358
:102C00007123822393230E94D907EDCE402A512AB3
:102C1000622A732ACB01BA0164297529862997296A
:102C2000F2CF4429552966297729009199031091FB
:102C30009A0320919B0330919C03CB01BA0160273A
:102C4000712782279327DFCF8695DD2011F0812F12
:102C50008170882309F4C7CE802F8295869587706E
:102C6000880F880F602F6F70462E512C712C612CAD
:102C7000082E04C0440C551C661C771C0A94D2F71D
:102C800040E050E0BA0104FF0FC04FE050E060E0C8
:102C900070E004C0440F551F661F771F8A95D2F756
:102CA0004095509560957095812F86958695837097
:102CB000823019F1D8F40091A5031091A603209158
:102CC000A7033091A803813069F04429552966296A
:102CD0007729CB01BA0160237123822393230E94B9
:102CE0006F0781CE402A512A622A732ACB01BA018A
:102CF0006429752986299729F2CF442955296629FF
:102D000077290091A5031091A6032091A703309184
:102D1000A803CB01BA016027712782279327DFCF51
:102D20001F70DD2029F0812F0E94B807802FC1CEAF
:102D3000802F0E94D105812F0E94790754CE802FC9
:102D400092EF891609F454C0981578F0A0EF8A160E
:102D500039F1B1EF8B1609F443C0DD2009F46BC0E3
:102D6000A11028CE812F8F7140C0E3EF8E1609F499
:102D700044C0F4EF8F12F1CFDD2009F451C01F7170
:102D8000812F0E94B8078091AA0382FD07C0A8E0A6
:102D90001A9FC0011124836080939403812F25C062
:102DA000DD20C9F024E02A1508F41DCE1F7161E072
:102DB00070E080E090E004C0660F771F881F991FC5
:102DC0001A95D2F70091A5031091A6032091A703AD
:102DD0003091A803A0CF35E03A1508F404CEE6CF31
:102DE000812F8F71DD2009F4A7CF0E94B807FBCD9A
:102DF000812F8F71DD20C9F39FCF60E070E0CB01A0
:102E0000DD2009F46CCF1F7161E070E080E090E09C
:102E100004C0660F771F881F991F1A95D2F75FCFDE
:102E200081E00E949C07B1E0BA1508F0DCCD82E099
:102E30000E949C07D8CDAA2059F0893309F071CEA1
:102E4000EFEFF7EE23E0E150F0402040E1F767CEEE
:102E5000812F8F7171CF85E0F701DE01119601900E
:102E60000D928A95E1F7D70112962C9189819A816A
:102E70002111CDCA0E943B05082FD1CA0631BCE5FD
:102E80001B0709F45ECD033CECE51E0760F1073D2E
:102E9000FCE51F0708F4FCCA0E351D4509F4F8CA05
:102EA00022C00B353DE5130709F462CD58F4011536
:102EB0009CE5190709F44FCD0F3D1C45A1F40E9474
:102EC000790EE6CA0C35BDE51B0709F453CD0D3567
:102ED0001D4549F48091AA0382FB882780F991E07F
:102EE00089270E94E40EF7018281008111818823E5
:102EF00009F442CDC8010E94960BD82E682FC80154
:102F00000E946405B8018D2D0E94FA098C01882E5B
:102F1000D7011296DC9012971596AC90A2944FE0D0
:102F2000A422809194038770A1F0CD2CDD2091F034
:102F3000812F807F803421F080E2800F883048F03C
:102F400082E00E949C07809194038770CC24C394F4
:102F50008111C12CB12EB2943FE0B322BBE0BB156E
:102F600008F441CDEB2DF0E0EB5BFA4D0C94A82476
:102F70001F93CF93DF9380914303807FA9F48091C7
:102F80004003882389F080917503D09144036091B8
:102F90003E0370913F03A0914103B0914203C62FBD
:102FA000C72316E0D81304C0DF91CF911F91089575
:102FB00090E0109711F0CF3F19F401968770F2CF8F
:102FC000189F9001199F300D1124F901EB5BFC4F04
:102FD00041814713F2CF40814613EFCF4281411127
:102FE000ECCF438154814A1B5B0B443B510528F7CE
:102FF000809143038F70806180934303F901E65B06
:10300000FC4F80818F70806180838EE393E00E940B
:10301000CC11DF91CF911F910C94B2058F929F92AA
:10302000AF92BF92CF92DF92EF92FF920F931F93D6
:10303000CF93DF93CDB7DEB761970FB6F894DEBFBD
:103040000FBECDBF8C0185E0F801DE011D96019019
:103050000D928A95E1F7D801EC901196DC901197CA
:103060001296CC9012978EE3882E83E0982E409192
:103070004103509142034115510509F443C1909118
:103080003E0320913F03892F82238F3F09F43AC1E9
:103090001396AD90BC901497F0904003F501E41B9B
:1030A000F50BFF2009F4FFC080914303382F307FD8
:1030B000E43BF10508F0C8C0311185C0FC2C2D118E
:1030C00024C09E1122C0C11020C08F7080618093E7
:1030D0004303C4010E94CC1180914303D80115968B
:1030E0008C938F2D61960FB6F894DEBF0FBECDBFC7
:1030F000DF91CF911F910F91FF90EF90DF90CF90D4
:10310000BF90AF909F908F900895A114B10429F0C3
:103110008E2D8D218F3F09F016C180E080FF14C0F5
:103120004C2D6D2D8E2D0E949205882369F08EE323
:1031300093E00E94CC1186E0EEE3F3E0DF011D9204
:103140008A95E9F7F12CCDCFAB2829F08E2D8D2172
:103150008F3F09F0F5C080E0B82FB170AB2E80FF33
:1031600029C04C2D6D2D8E2D0E949205B82E8111F7
:1031700021C0ED86DE868D859E850E94D80B292F85
:1031800022952F70223050F0243078F49F7051F047
:10319000F8019581907F31F4FB2CA3CF9F7011F043
:1031A0008823D1F3805E8830B8F3C8010E94CC1127
:1031B000BA2CF2CFCC2009F494CF809143038160E4
:1031C00080934303BFCF2D1112C09E1110C0C110B8
:1031D0000EC015968C93C8010E94CC1186E0F801B0
:1031E000AEE3B3E001900D928A95E1F77ACFED86D8
:1031F000DE868D859E850E94E20B882309F1CC2016
:10320000F9F080914303803270F020913E033091B9
:103210003F0338872F831986BB86AA868C87CE0109
:1032200007960E94CC1186E0F801AEE3B3E001906E
:103230000D928A95E1F70E94B817FF24F39451CFBD
:10324000C8010E94CC11F9CF332309F470CF2D119E
:103250000FC09E110DC0C1100BC0F8018583C801BD
:103260000E94CC1186E0D4011D928A95E9F739CFEE
:10327000ED86DE868D859E850E94E20B882301F314
:10328000CC20F1F280914303803268F220913E031A
:1032900030913F033A8329831B82BD82AC828E83A7
:1032A000CE010196BECFE43BF105E0F6FC2CCC202C
:1032B00039F22D1116C09E1114C08091430380FD78
:1032C0008DCF982F907F09F489CFF8018583903FA7
:1032D00009F481CF982F907F905F8F70892B858321
:1032E0007ACFED86DE868D859E850E94E20B811168
:1032F0009ACF80914303816080934303C8010E9469
:10330000CC11EFCECC2009F49BCFED86DE868D85E7
:103310009E850E94E20BF82E882309F491CF86E067
:10332000F801AEE3B3E001900D928A95E1F7809148
:103330003E0390913F030E94D80B0E94B817D1CE54
:1033400081E08C2509CF81E08C25E8CE1F93CF93B7
:10335000DF93CDB7DEB767970FB6F894DEBF0FBE29
:10336000CDBF342F4B8B252F5C8B6D8B7E8B8F8B42
:103370008E899F896111109296031A8A198A3D8756
:103380002E876F87998B888B86E0FE013D96DE0144
:10339000179601900D928A95E1F7CE0107960E944B
:1033A0000E18882389F016E08091750390914403EC
:1033B000891349C067960FB6F894DEBF0FBECDBF24
:1033C000DF91CF911F91089586E0FE013796DE01CF
:1033D000119601900D928A95E1F78A859B85892B3C
:1033E00011F38F81988589238F3FE9F2209144035F
:1033F00030E0C901019687709927409175034817FD
:10340000190671F40E94FE0E109244031092750387
:1034100086E0EEE3F3E0DF011D928A95E9F7C3CF82
:1034200096E0929FD001939FB00D1124AB5BBC4FEF
:10343000FE01319601900D929A95E1F78093440335
:103440000E94B205B0CF819FC00111248B5B9C4FBD
:103450000E940E18882309F4ADCF8091750390E087
:10346000019687709927809375039ECFE9E7F4E072
:1034700085E0808380914F0190915001A09151018E
:1034800081839283A3838FE784838FEF858346E0D4
:1034900050E06CE170E0CF010C94EE24AF92BF924B
:1034A000CF92DF92EF92FF920F931F93CF93DF9310
:1034B00000D000D0CDB7DEB72AE8E22E21E0F22E10
:1034C0003BEAA32E33E0B32E00E0CC24C394D12CEE
:1034D000F70181917F01F894E82FE295EF70F0E019
:1034E00021A18F70A60102C0440F551F8A95E2F7F3
:1034F000CA01922F982B91A392A18095892382A330
:10350000789400C0E2E9F1E030E020E010E0419181
:10351000A42FA295AF70B0E090968C9190E04F7080
:1035200002C0959587954A95E2F780FD4CC08C2D99
:10353000022E01C0880F0A94EAF7182B2F5F3F4F25
:103540002630310521F7F701319780810E94A009CB
:1035500050EA5A95F1F7F50180811817B1F11083FF
:1035600081E0082BFFEFAF1ABF0A2EE8E21621E038
:10357000F20609F0ADCF1091B403002341F181E0D0
:10358000809390020E947E0490938F0280938E021B
:1035900080918E0290918F020E9463040697D8F06A
:1035A000E12FF0E0E854FC4F8091AB0380838091E1
:1035B000AC0381838091AD0382838091AE038383CA
:1035C0001092900208C080E0B8CF80E0CACF80910E
:1035D00090028111DDCF0E94C10D182F6091B403BC
:1035E000882309F4A1C019821A821B821C82862FAB
:1035F00090E0BE016F5F7F4F88549C4F0E949E22D7
:1036000081112EC0809191028F5F8093910286304C
:1036100008F444C0E091B303F0E0E854FC4FDE014D
:103620001196CE01059611921D928A179B07D9F724
:10363000809134018F3F09F073C0011101C0012F47
:10364000802F0F900F900F900F90DF91CF911F91CF
:103650000F91FF90EF90DF90CF90BF90AF900895C3
:1036600010929102A091B303B0E0A854BC4FBE01E8
:103670006F5F7F4F9E012B5F3F4F10E04D91FB012D
:103680009191BF01491731F0AD0141505109FA0143
:103690009083182F6217730789F7CACF10E0C8CF3D
:1036A000C29EF001C39EF00D1124E85FFE4FA28878
:1036B000B388A114B10419F494EBA92EB12CC29EC5
:1036C000C001C39E900D11249C01285F3E4F7901DB
:1036D000F90186818823C1F0858596850E9463045F
:1036E000A816B90688F4DC9C50011124F7018189E1
:1036F000811105C0C501885F9E4F0E941A06C50151
:10370000825F9E4F0E943B06D3942D2D30E0809126
:103710003401082E000C990B821793070CF68DCFFD
:10372000D12C86E1C82EF1CF70E068547C4F809197
:10373000B30390E088549C4F0E94DD227ECF1F92FD
:103740000F920FB60F9211242F933F934F935F93D5
:103750006F937F938F939F93AF93BF93CF93DF9399
:10376000EF93FF93D091E900DF708091EC00C82FB8
:10377000C17080FDC0E81092E9008091F000877F61
:103780008093F00078940E94130F1092E9008091CA
:10379000F00088608093F000CD2BCF70C093E900DB
:1037A000FF91EF91DF91CF91BF91AF919F918F9159
:1037B0007F916F915F914F913F912F910F900FBE2D
:1037C0000F901F9018951F920F920FB60F92112411
:1037D0002F933F934F935F936F937F938F939F9319
:1037E000AF93BF93EF93FF938091E10082FF09C0F5
:1037F0008091E20082FF05C08091E1008B7F809381
:10380000E1008091DA0080FF24C08091D80080FF21
:1038100020C08091DA008E7F8093DA008091D900F9
:1038200080FF9BC080E189BD82E189BD09B400FEB3
:10383000FDCF81E08093560480913104811109C04D
:103840000E94C3020E948E038091E20084608093F4
:10385000E2008091E10080FF17C08091E20080FFCC
:1038600013C08091E2008E7F8093E2008091E2009D
:1038700080618093E2008091D80080628093D800BC
:1038800019BC85E0809356048091E10084FF29C033
:103890008091E20084FF25C080E189BD82E189BD7D
:1038A00089B5982F917080FFFBCF8091D8008F7DD4
:1038B0008093D8008091E1008F7E8093E100809119
:1038C000E2008F7E8093E2008091E200816080932D
:1038D000E20080915704882309F445C084E0809376
:1038E00056048091E10083FF27C08091E20083FFAE
:1038F00023C08091E100877F8093E10082E0809384
:103900005604109257048091E1008E7F8093E1006D
:103910008091E2008E7F8093E2008091E2008061DE
:103920008093E20042E060E080E00E945C038091CE
:10393000F00088608093F000FF91EF91BF91AF910C
:103940009F918F917F916F915F914F913F912F91B7
:103950000F900FBE0F901F90189519BC109256042F
:103960001092310476CF8091E30087FD93E090932D
:103970005604B7CF0F931F930E94C10D882321F0E7
:103980001F910F910C9472040E9472040091A10384
:103990001091A2032091A3033091A403600F711F23
:1039A000821F931F1F910F910895CF92DF92EF9284
:1039B000FF926B017C010E94C10D8823A1F02FB7FB
:1039C000F89460919D0370919E0380919F03909164
:1039D000A0032FBF6C197D098E099F09FF90EF90FE
:1039E000DF90CF9008950E94BA1CF4CFCF92DF925F
:1039F000EF92FF926B017C010E94C10D81110EC0FC
:103A00000E947204C61AD70AE80AF90AC092A103F2
:103A1000D092A203E092A303F092A403FF90EF9050
:103A2000DF90CF90089578941F921FB61F921124B3
:103A30008F939F93AF93BF9380919D0390919E032B
:103A4000A0919F03B091A0030196A11DB11D809389
:103A50009D0390939E03A0939F03B093A003BF91F7
:103A6000AF919F918F911F901FBE1F9018951F922D
:103A70001FB61F9211248F939F93AF93BF93809192
:103A8000B703811113C080919D0390919E03A09173
:103A90009F03B091A0034196A11DB11D80939D038A
:103AA00090939E03A0939F03B093A003BF91AF9107
:103AB0009F918F911F901FBE1F90189580911A049F
:103AC0000895CF93C82F882329F040E060E080E07C
:103AD0000E94120EC0931A04CF910895CDB7DEB79D
:103AE0006B970FB6F894DEBF0FBECDBF84B7877F4C
:103AF00084BF0FB6F894A895809160008861809388
:103B00006000109260000FBE80E890E00FB6F8945D
:103B100080936100909361000FBE85B7806885BF78
:103B200085B7806885BF8DE494E090936B028093A5
:103B30006A020E94C3020E948E038091E2008460A8
:103B40008093E2007894809156048823A1F000913C
:103B5000E9000F709091EC00892F817090FD80E852
:103B6000082B1092E9008091E80083FD0E94130F5A
:103B70000F700093E90082E084BD93E095BD9AEF59
:103B800097BD80936E001092A1031092A203109231
:103B9000A3031092A4030E94C10D809335010E94DB
:103BA000C10D81110E9492228091350180913501D1
:103BB00094E0811190E09093B40384E0891B80939A
:103BC000B30384E90E94A00986E60E94A00987E960
:103BD0000E94A00986EC0E94A00984EF0E94A0091F
:103BE00085EF0E94A00986EF0E94A00987EF0E943E
:103BF000A00981E30E94A00983E30E94A009EBEAE7
:103C0000F3E0A8EBB3E011921D9203E0E33BF00771
:103C1000D1F790E080E00E94E8248A3E9E4F11F0A8
:103C20000E94790E82E090E00E94E02480932804B4
:103C30000E946B0E9093AA038093A9030E944E1AD0
:103C40008FE39CE90197F1F700C000000E944E1A33
:103C50000E94C10DE4E08111E0E0F0E0E854FC4F87
:103C6000808181FF08C06FEF7FEF90E080E00E94CD
:103C70001C250E94520483E090E00E94E024682FFB
:103C800070E090E080E00E94D9071092ED038FEF82
:103C90009FEF909307048093060490930904809308
:103CA000080490930B0480930A0490930D0480936E
:103CB0000C0490930F0480930E049093110480934E
:103CC000100490931304809312049093150480932E
:103CD00014041092C0039093DA038093D903909355
:103CE000DC038093DB039093DE038093DD039093EA
:103CF000E0038093DF039093E2038093E1039093CA
:103D0000E4038093E3039093E6038093E5039093A9
:103D1000E8038093E70390E080E00E94E8248A3E75
:103D20009E4F21F00E94790E0E94361A46E050E024
:103D30006CE170E089E794E00E94D02480917904DE
:103D40008C7F11F40E94361A0E94C10D811102C0AD
:103D50000E94982280917904837011F410923B01A3
:103D6000809179048C7F8160809379040E944F0E4A
:103D70000E942C0E80E480937D048CE391E090936C
:103D8000B6038093B50388EB93E038E0432E480EEA
:103D90004D8ACC24CA94DC2CE12CF12C312C212C22
:103DA000809156048530A9F480E4982E90E1A92EE4
:103DB00022E1B22E80915604853009F49AC00E9407
:103DC000FE0E0E940E0680E00E94611D80E00E94AF
:103DD000611D0E944E1A81110E947204A9E2B4E092
:103DE000E8EBF3E0B12CA12C6A2C71908D91871532
:103DF00009F4F7C1872500E088248394982D98233F
:103E000009F4EAC10E94C10D7820882399F00F833C
:103E1000688681E0711001C080E089870E947E047D
:103E20008160782F9B878A874F81588569858B852C
:103E30000E94A619F501E75DFB4F808188268082EC
:103E4000772089F086E08A9DF0018B9DF00D11248A
:103E5000E856FE4FE00FF11D8081712C8F3F19F065
:103E60008B8F772473946090C003A72CB12CC5016D
:103E7000860D911D099764F188E090E04C018A1845
:103E80009B08B5016F537C4FA40181EC93E00E9425
:103E90002225B50167537C4FA40189EC93E00E9471
:103EA0002225A401440F551FB501660F771F6752E5
:103EB0007C4F89ED93E00E942225B5016F527C4F23
:103EC000A40181ED93E00E9422256A946092C003D0
:103ED0008091C00390E05B8CA52DB0E09D01220F86
:103EE000331F28533E4FAA0FBB1FBD0167537E4FA0
:103EF00053C080915604843051F181E00E94611DCD
:103F000081E00E94611D1092B70308E1602E712CC0
:103F10000FB6F894A895609260000FBE9092600072
:103F200083B7817F846083BF83B7816083BF7894C8
:103F3000889583B78E7F83BF0FB6F894A89580913C
:103F40006000886180936000109260000FBE8091D5
:103F50005504882309F42ECF0E944E1AE8EBF3E0B3
:103F600081918111BFC27D887E12FACF23CF90E06C
:103F7000FC01E054FC4FD9015C915183DB015C9161
:103F800051874B8C418A880F991FFC01E054FC4FEC
:103F9000128E118E91E0842F41E0480F971538F36F
:103FA0008093C0036091E9037091EA038091EB0371
:103FB0009091EC030E94D51C4B015C010E94BA1C3D
:103FC0006093E9037093EA038093EB039093EC030F
:103FD000A091C003E0ECF3E0AA8FB0E0A701960146
:103FE000281939094A095B09298B3A8B4B8B5C8B61
:103FF000AB1310C12A8D2093C00320911A0400E056
:10400000211108C020917904022F037019F0022FAA
:104010000695069520913B01213009F42BC12223FE
:1040200009F411C1223009F430C2233009F437C237
:1040300086E0E1E2F4E0DE01119601900D928A95AE
:10404000E1F79090230480902404B0902504A09080
:104050002604109223041092240410922504109236
:104060002604892D882909F448C080911F04909165
:1040700020040E9463049C0190911E04992309F47A
:104080004CC223333105C8F19F3F19F09F5F9093D5
:104090001E04992059F00E94B0089FEF19140CF4E7
:1040A00091E0899F802D112480932304882059F06A
:1040B0000E94B0089FEF18140CF491E0899F802DA6
:1040C000112480932404309123043323B1F02091F0
:1040D0002404222391F005EB3003C001112499231D
:1040E00009F4F0C19093230415EB210390011124EE
:1040F000332309F4EBC1309324048B2D8A2909F46E
:1041000048C080911C0490911D040E9463049C018E
:1041100090911B04992309F4FBC125363105C8F1A0
:104120009F3F19F09F5F90931B04BB2059F00E94A2
:104130008E089FEF1B140CF491E0899F802D1124B1
:1041400080932504AA2059F00E948E089FEF1A142C
:104150000CF491E0899F802D1124809326043091E6
:1041600025043323B1F020912604222391F045EB5E
:104170003403C0011124992309F4ACC190932504A0
:1041800055EB250390011124332309F4A7C1309383
:1041900026048091230490912404892B9091250476
:1041A000892B90912604892B11F00E942B0786E021
:1041B000FE013196A1E2B4E001900D928A95E1F7FB
:1041C0000E940E0690912704891709F4E9CD0E94F8
:1041D0000E0680932704E4CD0F5F880C063009F0AB
:1041E0000DCE0FEFA01AB00A18E0A116B10409F025
:1041F000FBCD8FEF8C878D871E860E947E048160A9
:10420000782F988B8F874C855D856E8588890E9475
:10421000A619C8CE418D528D2A01712C612C0989B5
:104220001A892B893C89041515052605370530F4B4
:104230001A8D11501A8FBF5F3296DACE480D591D74
:10424000528F418FF8CF109238016093160470930B
:104250001704809318049093190489E2E0ECF3E0CA
:10426000ADEEB3E001900D928A95E1F781E0809385
:104270003B01DECE80913701081327C0909179046D
:1042800093702091360130E081E09217130609F413
:1042900080E0817080933A0180917E049091390191
:1042A000981739F08093390140E060E080E00E9487
:1042B000120E0130B1F0002351F0023009F456C063
:1042C000033009F4C0C080E02DC081E0E2CF8091CE
:1042D0003A01882339F140E060E080E00E94120E4C
:1042E000F2CF80913801A82EAA0CA80EAA0C76E075
:1042F000972E9A0C892C36E3391510F466E3862E36
:1043000060917A0470917B0480917C040E949706EE
:10431000662E572E482EB12CA814B0F081E055E33C
:10432000591588F2909138019F5F9093380181115F
:104330007FCE82E080933B0180913A01811178CE5B
:10434000011176CE83E093CFF501EC5CFD4F8081C7
:1043500090913901892331F0242D462D652DC50119
:104360000E94E40D4FEFA41AB40AD6CF8091380111
:10437000A82EAA0CA80EAA0C56E0652E6A0C562C84
:1043800086E3861510F446E3542E20917D0431E037
:10439000230F08F42FEF30E050E040E0C701B601F2
:1043A0000E9489244901B12C442443942A2DA51448
:1043B00030F081E035E3361508F0B4CF84CFF50155
:1043C000EC5CFD4F808190913901892331F180911E
:1043D000ED038150082E000C990B87FF22C0B40119
:1043E00020917D04142D210F08F42FEFA101629F6D
:1043F000412D729F400D511D112460917A047091DE
:104400007B0480917C040E9490060E949706462FB0
:10441000282F672FC5010E94E40D2FEFA21AB20AC0
:10442000C5CFFC01E351FC4F318932130AC0FC01B6
:10443000EE0FFF1FE351FC4F618D728D68157905FA
:1044400078F20197CACF80913801A82EAA0CA80E45
:10445000AA0C96E0992E9A0C892C46E3491510F483
:1044600086E3882EB12CA81430F081E095E39915ED
:1044700008F058CF28CF20E040E060E0C5010E945E
:10448000E40D5FEFA51AB50AEECF009337018091D6
:1044900079048370809336010E949A0D53CF609106
:1044A00016047091170480911804909119040E94C9
:1044B000D51C693271058105910508F4B9CD1092BA
:1044C0003B01B6CD81E0809323040ECE81E0809342
:1044D000240413CE81E08093250452CE81E08093A2
:1044E000260457CEA9BCB9BC09B400FEFDCF80910B
:1044F000D8008F7D8093D8008091E0008260809307
:10450000E0008091E00081FDFCCF0E94FE0E52CCC5
:104510002D32314008F006CE3CCE2D32314008F02D
:10452000B5CDEBCD61E070E087E491E00C947323AE
:1045300061E070E087E491E00C947A230F931F937D
:10454000CF93DF93D82FC92F8B010E94142400979B
:1045500091F5D801ED2FFC2FEC01CD58DB4F2881D0
:104560002D932191EC01CC59DB4F2C8301968430A3
:10457000910591F786E0E9E7F4E0ACE6B4E001905C
:104580000D928A95E1F70E945E1D809372040E944D
:10459000BA1C6E5F7F4F8F4F9F4F60936404709380
:1045A0006504809366049093670481E0DF91CF9166
:1045B0001F910F91089580E0F9CF0F931F93CF9330
:1045C000DF93D82FC92F8B0160916404709165042B
:1045D00080916604909167040E94F61CD801ED2F2B
:1045E000FC2F90E080E02D91EC01CD58DB4F28832B
:1045F000EC01CC59DB4F2C8121930196843091053D
:1046000091F786E0ECE6F4E0A9E7B4E001900D92C2
:104610008A95E1F780917204DF91CF911F910F91FC
:104620000C94611D8EE14A9B02C08150E1F74A9BC8
:10463000FECF08955A9880E28A95F1F75A9A089524
:10464000FC013BE03A95F1F798E020E080E031E0B2
:1046500040E14A95F1F7880F4A9B02C08160232709
:1046600042E04A95F1F7000040E14A95F1F7915098
:1046700079F790E19A95F1F799B132E03A95F1F72F
:10468000000040E14A95F1F792FB992790F99227B3
:104690002081920F90830895EF92FF920F931F93C2
:1046A000CF93DF930F92CDB7DEB719828C017C01D7
:1046B000E60EF11C0E151F0561F481E09981911140
:1046C00080E00F90DF91CF911F910F91FF90EF90BD
:1046D00008950E941223CE0101960E942023F80122
:1046E00081938F01E7CF9093780480937704529A57
:1046F0005A9A0895909378048093770452985A9A1E
:10470000EA9AE9E6F0E080818F7C80830895615029
:10471000770B91E001C0990F6A95EAF720E031E04C
:10472000911108C0222391F05A9A80E28A95F1F7FC
:104730005A980895492F482339F05A9A232740E27E
:104740004A95F1F79695ECCF5A98F9CF5A98EDCF54
:10475000FF920F931F93CF93DF93EC018C01060F11
:10476000111DC017D10731F4DF91CF911F910F9127
:10477000FF900895F9900E941A2368E08F2D0E94FF
:104780008723EFCF1F920F920FB60F9211242F9312
:104790003F934F935F936F937F938F939F93AF93C9
:1047A000BF93CF93DF93EF93FF935A98529AC091A0
:1047B0007704D09178046D81662321F08E819F81EA
:1047C0000E94A8230E941A2380E18A95F1F75A9843
:1047D00052985A9A80E18A95F1F76A81662309F125
:1047E0008B819C810E944C23E881F981882311F000
:1047F00088E001C082E080830E941223FF91EF9144
:10480000DF91CF91BF91AF919F918F917F916F91E8
:104810005F914F913F912F910F900FBE0F901F907E
:104820001895E881F981E4CFCF93DF93C0917704A5
:10483000D0917804F894529A5A9885E08A95F1F7C5
:10484000000052985A9A80E28A95F1F74A9B0CC070
:10485000529A5A9AE881F98181E08083789481E0C4
:1048600090E0DF91CF9108956D81662381F08E8174
:104870009F810E944C2381110AC0529A5A9AE88162
:10488000F98182E08083789482E090E0EACF0E9410
:10489000122380E28A95F1F75A98529A80E18A951C
:1048A000F1F76A81662321F08B819C810E94A82305
:1048B0000E941A23E881F9811082789490E080E0C8
:1048C000D0CFAA1BBB1B51E107C0AA1FBB1FA61755
:1048D000B70710F0A61BB70B881F991F5A95A9F7A9
:1048E00080959095BC01CD01089597FB072E16F495
:1048F000009407D077FD09D00E94612407FC05D001
:104900003EF4909581959F4F0895709561957F4FE6
:104910000895052E97FB1EF400940E94A02457FDD5
:1049200007D00E94AE2407FC03D04EF40C94A024C0
:1049300050954095309521953F4F4F4F5F4F0895CB
:1049400090958095709561957F4F8F4F9F4F0895FB
:10495000EE0FFF1F0590F491E02D0994A1E21A2EAD
:10496000AA1BBB1BFD010DC0AA1FBB1FEE1FFF1F13
:10497000A217B307E407F50720F0A21BB30BE40B63
:10498000F50B661F771F881F991F1A9469F76095AA
:104990007095809590959B01AC01BD01CF01089564
:1049A000DC01CB01FC01F999FECF06C0F2BDE1BDEF
:1049B000F89A319600B40D9241505040B8F70895DE
:1049C000F999FECF92BD81BDF89A992780B50895D7
:1049D000A8E1B0E042E050E00C94D224DC01A40F46
:1049E000B51F4150504048F0CB01840F951F2E91C8
:1049F0000E94FF2441505040D0F70895262FF99986
:104A0000FECF92BD81BDF89A019700B4021639F02D
:104A10001FBA20BD0FB6F894FA9AF99A0FBE0895FE
:104A20000396272F0E94FF240E94FE24252F0E9418
:104A3000FF24242F0C94FF240196272F0E94FF248B
:104A40000C94FE24FB01DC0102C001900D92415048
:104A50005040D8F70895F894FFCFF10BF10BFA0B03
:104A6000FA0BFC0BFA0BFA0BFA0BF10BF10B010C26
:104A7000FA0BFA0B010CF60F1E10B4111E10B41134
:104A800051107210B4116F117C11C114C11438157A
:104A900038159515AF15F314F314BA1590169F1623
:024AA0009F165F
:104AA200E400E500E000E100870C770C520C000006
:104AB2000000000000000000000000000401870C5C
:104AC200770C520C00000000000000000000000003
:104AD20000000001FF01FFFF00FF00034F045A0D19
:104AE200390D350D310D0163040F640404730400A4
:104AF200FF8C80EB0300020103818283E200E90064
:104B0200EA00B500B600B700CD008301CC008A01EF
:104B12009201940121022302240225022602270285
:104B22002A02B300B4006F007000946697C60000BA
:104B32000000F4F5F6F73133181712110A091916A5
:104B420013100B081A15140F0C07FFFFFF0E0D06AA
:104B520033322D2C252434312E2B262335302F2A87
:104B62002722FFFFFF2928215510320D101410268D
:104B7200323055345F3F55275515550444024413CE
:104B82004425503A3C373223320D3200210321149E
:104B92002125102A101810070007001800298B1071
:104BA200AE0DD014D026AE308B34813F8B278B15BF
:104BB2008B049C029C139C25903AA437AE23AE0D25
:104BC200AE00BF03BF14BF25D02AD018D007E0071C
:104BD200E018E029020202020202010404040404B1
:104BE2000401010404040404040404040101010294
:104BF2000202020202010404040404040101040486
:0A4C02000404040404040401010189
:00000001FF
